:100000000C9459030C94A0030C94A0030C94A0032B
:100010000C94A0030C94A0030C94A0030C94A003D4
:100020000C94A0030C94A0030C94D4260C94A62743
:100030000C94F8210C94A0030C94A0030C94A0033E
:100040000C94A0030C94A0030C94A0030C94A003A4
:100050000C94A0030C9451220C94A0030C94A003C4
:100060000C94A0030C94A0030C94A0030C94A00384
:100070000C94A0030C94A0030C94A0030C94A00374
:100080000C94A0030C94A0030C94A0030C94A00364
:100090000C94A0030C94A0030C94A0030C94A00354
:1000A0000C94A0030C94A0030C94A0033906390609
:1000B0006B066B06B806D606F707F707E106760764
:1000C00087078707E707F707F707F00797089708F5
:1000D000A908A908A008A908A908A90897089708C5
:1000E000A508A908A908A50813283A2832293A28FA
:1000F00032298628A928322900290F2929001E0023
:1001000020002200240026002D0035001F002100C1
:100110002300250027002E004900140008001700C6
:10012000180012002F002B001A0015001C000C00F4
:10013000130030004C00040007000A000D000F00FF
:100140002A003900160009000B000E0033003100B0
:10015000E1001B00190005001000370034001D00ED
:10016000060005001100360038002800E0000000FD
:100170002C002C00E4005100E5000000E2000151D9
:10018000E60050004F005200005C3A003C003E0088
:1001900040004200440001003B003D003F004100A0
:1001A000430045000100C35CC65C01000100010082
:1001B00001000100C75C0100010001000100010015
:1001C0000100C45CC85C01000100010001000100E5
:1001D000C95C010001000100010001000100CB5CCD
:1001E00001000100010001000100C55CCA5C0100C2
:1001F00001000100010001000100000001000100F8
:1002000001004E00010000000100010001004A0051
:100210004D004B0001000100010001000100010040
:1002200001000100010001000100010001000100C6
:1002300001000100010001000100010001000100B6
:1002400001000100010001000100010001000100A6
:100250000100010001000100010001000100010096
:100260000100010001000100010001000100010086
:100270000100010001000100010001000100010076
:100280000100010001000000010001000100010067
:100290000100000001000100010001000100010057
:1002A0000100010001000100010001000100010046
:1002B0000100010001000100010001000100010036
:1002C0000100010001000100010001000100010026
:1002D0000100010001000100010001000100010016
:1002E0000100010001000100010001000100010006
:1002F00001000100010001000100010001000100F6
:1003000001000100010001000100010001000100E5
:1003100001000000010001000100010001000000D7
:1003200001000100010001000100010000047F3F05
:100330001F643214643214783C1E1E140A052223F2
:10034000252628292A2C2D2F3032333536383A3BB2
:100350003D3E4042434547494A4C4E505153555704
:10036000595A5C5E6062646668696B6D6F71737523
:1003700077797B7D7F81838587898A8C8E90929423
:1003800096989A9C9E9FA1A3A5A7A8AAACAEAFB130
:10039000B3B4B6B8B9BBBCBEBFC1C2C3C5C6C7C97A
:1003A000CACBCCCDCED0D1D2D2D3D4D5D6D7D7D834
:1003B000D9D9DADADBDBDBDCDCDCDCDCDDDDDDDD86
:1003C000DCDCDCDCDCDBDBDBDADAD9D9D8D7D7D68E
:1003D000D5D4D3D2D2D1D0CECDCCCBCAC9C7C6C545
:1003E000C3C2C1BFBEBCBBB9B8B6B4B3B1AFAEAC8B
:1003F000AAA8A7A5A3A19F9E9C9A98969492908E36
:100400008C8A89878583817F7D7B79777573716F0E
:100410006D6B6968666462605E5C5A5957555351EA
:10042000504E4C4A4947454342403E3D3B3A3836A0
:10043000353332302F2D2C2A292826252322FFAAB6
:100440007F55400001010101010101010102020289
:100450000202020202020303030303030303040470
:10046000040404040405050505050606060606073A
:100470000707070708080808090909090A0A0A0BF3
:100480000B0B0C0C0C0D0D0D0E0E0E0F0F0F101094
:10049000111111121213131414151516161717181B
:1004A0001819191A1A1B1B1C1D1D1E1E1F20202186
:1004B0002222232424252626272829292A2B2C2DCD
:1004C0002D2E2F30313232333435363738393A3BEE
:1004D0003C3D3E3F404142434445464748494A4CE3
:1004E0004D4E4F50515354555658595A5B5D5E5FAF
:1004F000616264656668696B6C6D6F707273757745
:10050000787A7B7D7E8082838587888A8C8E8F91A6
:10051000939596989A9C9EA0A2A3A5A7A9ABADAFD0
:10052000B1B3B5B7BABCBEC0C2C4C6C9CBCDCFD1BA
:10053000D4D6D8DBDDDFE2E4E7E9EBEEF0F3F5F863
:10054000FAFDFF10034300680061006C006900635E
:100550000065000000140343007500730074006F11
:10056000006D004B00420044000000040309040930
:10057000023B00020100A0FA09040000010301018E
:100580000009211101000122400007058103080034
:100590000A09040100010300000009211101000102
:1005A00022B6000705820320000A120100020000A3
:1005B00000086A6A0C00010001020001050109023D
:1005C000A10185020901A1000509190129081500E9
:1005D0002501950875018102050109300931158150
:1005E000257F95027508810609381581257F9501BB
:1005F00075088106050C0A38021581257F9501755D
:10060000088106C0C005010980A101850319012ADE
:10061000B700150126B700950175108100C0050CC3
:100620000901A101850419012AA002150126A002D1
:10063000950175108100C005010906A10185050518
:100640000719E029E71500250195087501810205C4
:1006500007190029EF1500250195F07501810205A4
:1006600008190129059505750191029501750391F8
:1006700001C005010906A101050719E029E71500D8
:10068000250195087501810295017508810105070D
:10069000190029FF150026FF009506750881000541
:1006A00008190129059505750191029501750391B8
:1006B00001C011241FBECFEFDAE0DEBFCDBF04B60C
:1006C00003FE27C080910D0390910E03A0910F03AC
:1006D000B09110038730904BA740B04BD1F41092EB
:1006E0000D0310920E0310920F031092100314BE0C
:1006F00084B7877F84BF0FB6F894A8958091600077
:10070000886180936000109260000FBEE0E0F8E323
:10071000099511E0A0E0B1E0EAECF4E502C0059033
:100720000D92A03CB107D9F723E0A0ECB1E001C0E5
:100730001D92AD30B207E1F70E945F140C94632A5A
:100740000C94000081E0089581E008950C94A403C6
:1007500008950C94A8031F93CF93DF9300D000D08B
:100760001F92CDB7DEB749835A836B833091C201A4
:1007700089819A81311114C0662359F0222349F0EE
:100780000E943B0A182F682F89819A810E94E409F0
:1007900003C00E940F0A182F69817A81812F04C03B
:1007A0000E943B0A69817A810F900F900F900F9001
:1007B0000F90DF91CF911F910C94C210FC01262F56
:1007C000408151816281738184810C94AB0381E00B
:1007D0000895CF93DF93EC0160E00E94DE03BE0139
:1007E000DF91CF910C94A9030E94EF120E946C0438
:1007F0000C9429130C94251308950E9485080E94D7
:10080000FC032FEF84E39CE0215080409040E1F70F
:1008100000C000000C9477220F931F93CF93DF93B7
:100820008C0161E00E94DE03EC01B8010E94A60386
:10083000882309F444C0B801CE010E94CD1E88234C
:10084000F1F1B801CE010E941F1F8823C1F1B80148
:10085000CE010E944A20882391F1B801CE010E9466
:10086000631D882361F1F8018281882309F1CB356A
:100870008DE5D807C1F050F4C115FCE5DF0781F024
:10088000CF3DDC45A9F40E94D60F19C0CC35EDE56B
:10089000DE0761F0CD35DD4559F40E945A0E08C0DF
:1008A0000E94FD030CC00E94630E02C00E94660EEF
:1008B000C801DF91CF911F910F910C94A20380E0AA
:1008C000DF91CF911F910F91089508950C946504C5
:1008D00081E008950C9468040895CF93C82F0E9476
:1008E00066048C2F0E946A04CF910895CF93DF9302
:1008F000CDB7DEB72B970FB6F894DEBF0FBECDBFD6
:100900004F83588769877A878B8761110E94890E88
:100910009E012F5F3F4F86E0F90111928A95E9F71A
:1009200085E0FE013796D90101900D928A95E1F795
:1009300089819A814C815D81452B31F09F3F31F453
:1009400091E08F3F19F403C091E001C090E090FF67
:1009500009C049815A816B817C818D819E810E9471
:10096000890D05C0C9010E94E7038111F2CF2B96C2
:100970000FB6F894DEBF0FBECDBFDF91CF910895C3
:10098000FC01808191810E947D0A0895CF93882384
:1009900009F4A4C0C82F8238C1F40E94802081FDD0
:1009A0009DC069E380910001909101010E94762130
:1009B0000E94BB0E2FEF81EE94E0215080409040CA
:1009C000E1F700C0000069E319C0833801F50E9417
:1009D000802080FD83C063E580910001909101013A
:1009E0000E9476210E94BB0E2FEF81EE94E02150F1
:1009F00080409040E1F700C0000063E58091000175
:100A0000909101010E948121CF910C94BB0E8438FA
:100A1000C1F40E94802082FD61C067E480910001E2
:100A2000909101010E9476210E94BB0E2FEF81EE72
:100A300094E0215080409040E1F700C0000067E45E
:100A4000DDCF8CEF8C0F813AD0F46C2F80910001B8
:100A5000909101010E94F620882349F06C2F80912B
:100A60000001909101010E9481210E94BB0E6C2F18
:100A700080910001909101010E947621C5CF80E212
:100A80008C0F883048F4C77081E001C0880FCA9588
:100A9000EAF70E946C0EB8CFEBE5EC0FE33040F4C0
:100AA000F0E0EA5AFE4F808190E0CF910C94B420A0
:100AB000E8E5EC0FE73150F4F0E0EE0FFF1FE85DE2
:100AC000FE4F80819181CF910C94CA20CD3E30F0B1
:100AD0008C2F0E94EC14CF910C94BE15CF910895E9
:100AE000882309F464C0823879F40E94802081FF51
:100AF0005EC069E380910001909101010E9476211E
:100B00000E94BB0E69E310C08338B1F40E948020BC
:100B100080FF4DC063E580910001909101010E942A
:100B200076210E94BB0E63E5809100019091010146
:100B30000E9481210C94BB0E843879F40E9480209D
:100B400082FF35C067E480910001909101010E940D
:100B500076210E94BB0E67E4E7CF9CEF980F913A95
:100B600010F4682FE1CF90E2980F983050F487701E
:100B700091E001C0990F8A95EAF7892F0E94720EC1
:100B8000D9CF9BE5980F933020F480E090E00C944F
:100B9000B42098E5980F973120F480E090E00C9411
:100BA000CA208D3E20F00E9447150C94BE15089572
:100BB0001F93CF93DF93182FEB010E94C604209759
:100BC00041F08FE99FE00197F1F700C00000219705
:100BD000F6CF812FDF91CF911F910C94700589334F
:100BE00019F060E070E002C060E570E00C94D80598
:100BF000882321F00E946C0E0C94BB0E089588236C
:100C000021F00E94720E0C94BB0E0895CF92DF92D9
:100C1000EF92FF920F931F93CF93DF937C01062FE8
:100C2000C72FFC01D281158112951F700E94410EC1
:100C3000882399F0DD2389F08C2F807F803421F088
:100C400080E2800F883048F082E00E940B0F0E9403
:100C5000410E91E0D82ED92601C0D12CCC2EC294C1
:100C60008FE0C8228C2D90E0FC01EA5AFF4F0C94D3
:100C7000BE298C2F807FCF70882311F0C295C07F52
:100C8000DD2399F0CC2309F48DC180E2800F8830F8
:100C900010F0011104C08C2F0E946C0E03C08C2F29
:100CA0000E947C0E0E94BB0E7DC1802F0E947005A9
:100CB000CC2309F49CC180E2800F883010F0011130
:100CC00004C08C2F0E94720E03C08C2F0E94820ED3
:100CD0000E94BB0E8CC18C2F807FCF70803211F0B0
:100CE000C295C07F002319F00130C9F022C0DD2376
:100CF00071F0112341F0113031F40E949C0E8C2BC5
:100D00000E94A40E74C10E949C0E8C2B1DC0112346
:100D100019F0113009F46BC10E94B10E25C0DD231A
:100D200021F0163008F063C10EC0153008F05FC125
:100D30001BC0DD2361F0112331F0F701858180FFB5
:100D400031C18F7085838C2F0E94F80550C111230B
:100D500059F0093309F037C1FFEF27EE83E0F15076
:100D600020408040E1F72DC18C2F0E94FF053FC13C
:100D70008C2F86958695837019F0813061F037C18C
:100D8000DD2321F0802F9C2F937002C080E090E043
:100D90000E94B42034C1DD2321F0802F9C2F93705A
:100DA00002C080E090E00E94CA2029C1802FDD238C
:100DB00019F00E94EC1402C00E9447150E94BE1553
:100DC0001EC18C2F837009F045C0D11114C1402F72
:100DD000429546954770440F440F602F6F70862FE1
:100DE00090E0A0E0B0E0042E04C0880F991FAA1F75
:100DF000BB1F0A94D2F704FF10C00FE010E020E000
:100E000030E004C0000F111F221F331F4A95D2F794
:100E1000009510952095309503C000E010E09801F2
:100E2000C695C695C370BC01CD01602B712B822B7A
:100E3000932BC23049F058F4C13019F00E94FA08DF
:100E4000DAC00E94E808D7C00E940C09D4C00E94F2
:100E5000E608D1C0DD2319F08C2F817001C0869582
:100E6000882309F4C8C0402F429546954770440F27
:100E7000440F602F6F70862F90E0A0E0B0E0042E4A
:100E800004C0880F991FAA1FBB1F0A94D2F704FF42
:100E900010C00FE010E020E030E004C0000F111F90
:100EA000221F331F4A95D2F7009510952095309553
:100EB00003C000E010E09801C695C695C370BC0160
:100EC000CD01602B712B822B932BC23049F058F44B
:100ED000C13019F00E94BF098EC00E94AD098BC0BD
:100EE0000E94D10988C00E94200985C0CF70DD23EF
:100EF00039F08C2F0E944609802F0E94F8057BC094
:100F0000802F0E94FF058C2F0E94670974C0023F4A
:100F100001F128F4003F41F0013FA1F03FC0033F41
:100F2000F9F0043F39F13AC0DD2341F0153008F003
:100F30005EC08C2F8F710E948C0959C0163008F04A
:100F400056C0F7CFDD2339F08C2F8F710E944609F0
:100F50004EC0DD23C9F38C2F8F710E94670947C0F3
:100F6000DD2329F08C2F8F710E94310940C00E942F
:100F70002C093DC0DD2349F0CF718C2F0E9446091A
:100F800063E08C2F0E94F00E32C081E00E940B0FB4
:100F9000123068F182E00E940B0F29C0DD2331F08E
:100FA000112391F2802F0E94C60421C0112399F2CF
:100FB000093349F49FEFE7EEF3E09150E040F04051
:100FC000E1F700C00000802F0E94700510C04C2F78
:100FD0004F70602FC7010E94BE100E94AB0A0FC065
:100FE0004C2F4F70602FC7010E94C11008C088EFBE
:100FF0008C0D843020F40E9480200E946D04DD203E
:10100000C9F00E943D0E80FD15C0F70112820E94BA
:10101000370E0E944609C7010E943B080E94370E06
:10102000DF91CF911F910F91FF90EF90DF90CF90C4
:101030000C946709DF91CF911F910F91FF90EF9072
:10104000DF90CF9008950F931F93CF93DF93EC0120
:10105000688179818A810E94880A8C010E94E30953
:101060000E94D408B801CE010E940606DF91CF91FC
:101070001F910F910895CF93DF93EC01988189819F
:101080002B813C81232B31F08F3F31F481E09F3F56
:1010900019F403C081E001C080E080FD19C0CE01D9
:1010A0000E940C0481110CC00E94410E882381F023
:1010B0008A81882369F082E0DF91CF910C940B0F35
:1010C000CE010E942308CE01DF91CF910C94E90359
:1010D000DF91CF91089580E090E00E94B42080E0FD
:1010E00090E00E94CA200E94890E0E94990E0E94E0
:1010F000BB0E0E94EF160C94BE15809100019091DA
:1011000001010E948C210C946B080E94790E0C94B2
:101110007D08E92FE295EF704E2F50E0FA013297EB
:10112000EE30F105B0F4EA59FF4F0C94BE29803F30
:1011300091F018F4883E68F40EC0843F51F40BC05F
:10114000883E48F0813F29F406C093FB882780F948
:10115000089580E0089581E00895FC0180819181E7
:101160000E947D0A0E9489080895CF93DF9300D0E2
:1011700000D01F92CDB7DEB70F900F900F900F9059
:101180000F90DF91CF910895CF93DF9300D000D0DF
:1011900000D0CDB7DEB726960FB6F894DEBF0FBEEF
:1011A000CDBFDF91CF910895089508950C94D5088F
:1011B0000C94D6080E94D8086093F4017093F5014E
:1011C0008093F6019093F7010C946B080C94DA0865
:1011D0000F931F930091F4011091F5012091F601F6
:1011E0003091F701602B712B822B932B1F910F9164
:1011F0000C94DA080F931F930091F4011091F501FC
:101200002091F6013091F70160237123822393230B
:101210001F910F910C94DA080F931F930091F40122
:101220001091F5012091F6013091F70160277127A7
:10123000822793271F910F910C94DA080C94D508FC
:101240000E941E096093F0017093F1018093F201F6
:101250009093F3010C946B0860E070E0CB010C9468
:1012600020090F931F9341E050E060E070E08A0195
:101270009B0104C0000F111F221F331F8A95D2F754
:10128000C901B8011F910F910C9420090F931F936E
:1012900041E050E060E070E004C0440F551F661F5D
:1012A000771F8A95D2F78091F0019091F101A0917A
:1012B000F201B091F3018A019B01082B192B2A2B13
:1012C0003B2BC901B8011F910F910C9420090F937A
:1012D0001F9341E050E060E070E004C0440F551FF0
:1012E000661F771F8A95D2F7409550956095709547
:1012F0008091F0019091F101A091F201B091F30180
:101300008A019B01082319232A233B23C901B80121
:101310001F910F910C9420090F931F9341E050E00F
:1013200060E070E004C0440F551F661F771F8A9568
:10133000D2F78091F0019091F101A091F201B0916A
:10134000F3018A019B01082719272A273B27C90196
:10135000B8011F910F910C9420090F931F930091D6
:10136000F0011091F1012091F2013091F301602B15
:10137000712B822B932B1F910F910C9420090F93AB
:101380001F930091F0011091F1012091F201309131
:10139000F30160237123822393231F910F910C94F7
:1013A00020090F931F930091F0011091F1012091FA
:1013B000F2013091F30160277127822793271F9153
:1013C0000F910C942009089527E0929F800D11241D
:1013D000E82FE695E695E695877051E001C0550F38
:1013E0008A95EAF785E0E89FF0011124ED53FE4F5E
:1013F00020E030E070E04081CB01022E02C09695E3
:1014000087950A94E2F78170819584278523842744
:1014100081932F5F3F4F2530310569F7089527E00D
:10142000929F800D1124682F669566956695982F7A
:10143000977085E0689FB001112440E050E080E0A3
:10144000FB01E40FF51FED53FE4F208130E0092E24
:1014500002C0369527950A94E2F721703327042EAF
:1014600001C0220F0A94EAF7822B4F5F5F4F45308D
:10147000510531F70895BF92CF92DF92EF92FF921C
:101480000F931F93CF93DF938C01C090F001D09006
:10149000F101E090F201F090F3018091F40190915C
:1014A000F501A091F601B091F701C82AD92AEA2ADC
:1014B000FB2ACFE1D0E0D701C6010C2E04C0B695BF
:1014C000A795979587950A94D2F780FD04C0219738
:1014D00090F7B12C07C0BC2EB8018C2F0E94F911D7
:1014E0000197A9F38B2DDF91CF911F910F91FF9061
:1014F000EF90DF90CF90BF900895CF93DF93EC01F2
:101500000E943B0ABE010E94F911DF91CF9108951C
:101510001F93CF93DF93EB019091C201992321F0A8
:10152000CB010E947D0A13C0882349F0CB010E94A1
:101530003B0A182F682FCE010E94E40904C0CB019A
:101540000E940F0A182FBE01812F0E94F911DF910E
:10155000CF911F910895EF92FF920F931F93CF9316
:10156000DF938C01892B09F46CC0F12CEE24E394F9
:10157000E8012196F8018491843740F4843008F022
:1015800051C0813081F0823019F15BC0853709F498
:1015900044C0A8F19CE7980F903708F052C08F77AD
:1015A0000E94700541C00E5F1F4FFE01849190E2C2
:1015B000980F983050F48770FE2D01C0FF0F8A9568
:1015C000EAF78F2F0E948C0E14C00E94C6042DC013
:1015D0000E5F1F4FFE01849190E2980F983060F4E7
:1015E0008770FE2D01C0FF0F8A95EAF78F2F0E94AA
:1015F000920E0E94BB0E19C00E94700516C00E5FAD
:101600001F4FFE01C491CC2381F08FE99FE0019729
:10161000F1F700C00000C150F6CF0E5F1F4FFE0172
:10162000F49003C00E94C6048E018F2D882309F414
:101630009FCFEFE9FFE03197F1F700C00000815044
:10164000F5CFDF91CF911F910F91FF90EF9008950B
:101650001F93CF93DF93C091F80116E08091F901B9
:10166000C81799F0D0E01C9FF0011D9FF00D1124C8
:10167000E650FE4F40815181628173818481958162
:101680000E94C4082196C770E9CFDF91CF911F91C6
:10169000089540912A0250912B0260912C02709182
:1016A0002D0280912E0290912F020C94C4080F936A
:1016B0001F93CF93DF9380912F0282958F7009F053
:1016C0005DC080912C02882309F458C08091F801F4
:1016D0001091F90160912A0270912B02C0912D02A4
:1016E000D0912E0291E06F3F09F090E0292F06E0A3
:1016F000811709F443C0209721F07F3F21F030E0AB
:1017000003C031E001C0322F90E030FD34C0089FAB
:10171000F001099FF00D1124DF01A650BE4F119674
:101720003C911197371327C03C91361324C0129671
:101730003C91129731111FC013964D915C911497F3
:101740004C1B5D0B483C5105B0F480912F028F700B
:10175000806180932F02E150FE4F80818F70806105
:1017600080838AE292E00E943B08DF91CF911F9133
:101770000F910C94280B01968770BACFDF91CF910F
:101780001F910F9108959F92AF92BF92CF92DF92D7
:10179000EF92FF920F931F93CF93DF93CDB7DEB7F6
:1017A00061970FB6F894DEBF0FBECDBF8C0185E008
:1017B000F801DE011D9601900D928A95E1F7F8017E
:1017C000E28090912A0260912B0220912D023091AB
:1017D0002E022115310531F06F3F31F481E09F3F3A
:1017E00019F403C081E001C080E0F82FF1709F2E52
:1017F00080FD3FC1F80140815181A380B4808AE21D
:10180000C82E82E0D82EF0902C02F501E21BF30BDB
:10181000FF2009F4D9C080912F02E83CF10508F0BF
:1018200095C0282F207F09F052C0561313C04913CA
:1018300011C0FE2CE1100EC08F70806180932F02CA
:101840000E94490BC6010E943B0880912F02F801BB
:1018500085834CC1AB2831F05F3F31F481E04F3FCD
:1018600019F403C081E001C080E080FD03C081E085
:101870008E2502C080E090E0F82FF170FF2E80FFEF
:101880001CC08091F8012091F90136E0821709F41B
:101890000BC190E0389FF001399FF00D1124E65004
:1018A000FE4F6181561306C06081461303C06281FA
:1018B000E61203C001968770E9CFFE2CEE2009F4F2
:1018C00015C180912F02816080932F0254C056135E
:1018D00006C0491304C0E11002C0F80199C0C80154
:1018E0000E94AD08882361F1EE2051F120912F0272
:1018F000822F82958F7090E0029774F080912A0277
:1019000090912B0298878F831986BB86AA862C8795
:10191000CE0107960E943B0886E0F801AAE2B2E0F9
:1019200001900D928A95E1F70E94570B0E94490B96
:101930000AC0561711F1C8010E94AD0881112CC0D0
:10194000C8010E943B08FF24F394D0C0282F207FB9
:1019500081F77A2DB98AA88A6E2D89890E94B508E7
:101960008AE292E00E943B0886E0F60111928A9595
:10197000E9F70E94490BF12CB9C04913DCCFE11003
:10198000DACFF8018583C8010E943B0886E0F601A2
:1019900011928A95E9F7AAC0EE2091F220912F02C8
:1019A000822F82958F7090E002970CF4B5CF8091D2
:1019B0002A0290912B029A8389831B82BD82AC827A
:1019C0002E83CE010196A6CFE83CF10508F044C075
:1019D000FE2CEE2009F4B4CF561330C049132EC0AC
:1019E00020912F0220FD21C0822F82958F70482FD9
:1019F00050E041155105C9F0F80125834F305105DC
:101A000041F08F5F982F9295907F822F8F70892B56
:101A10008583C8010E943B0886E0F801AAE2B2E093
:101A200001900D928A95E1F73CC086E0F801AAE2A8
:101A3000B2E001900D928A95E1F758C0C8010E946A
:101A4000AD08811169CF80912F02816080932F02B0
:101A5000C8010E943B084AC07A2DB98AA88A6E2D17
:101A600089890E94B50886E0F60111928A95E9F706
:101A700018C0EE2009F464CFC8010E94AD08F82E0A
:101A8000882309F45DCF86E0F801AAE2B2E0019074
:101A90000D928A95E1F78AE292E00E94C0040E94CA
:101AA000570B0E94490B22C04D875E878D859E850E
:101AB0000E947D0A292F22952F70223028F49F70D2
:101AC00039F0811105C00BC0243028F49F7049F40F
:101AD000805E883020F0C8010E943B089F2CF92CC2
:101AE00005C0F8019581907F99F7F9CF8F2D619608
:101AF0000FB6F894DEBF0FBECDBFDF91CF911F911F
:101B00000F91FF90EF90DF90CF90BF90AF909F909C
:101B100008951F93CF93DF93CDB7DEB72C970FB601
:101B2000F894DEBF0FBECDBF4F83588769877A8791
:101B30008B879C87CE0107960E94C30B8823D1F028
:101B40009F8188852A853B85232B31F08F3F31F497
:101B500081E09F3F19F403C081E001C080E080FD77
:101B600047C04F81588569857A858B859C850E9401
:101B7000C4083EC086E0FE013796DE011196019052
:101B80000D928A95E1F7FF81E8856A857B8561156D
:101B9000710531F0EF3F31F481E0FF3F19F403C0EC
:101BA00081E001C080E080FD23C02091F90130E098
:101BB000C9010196877099274091F80150E0841778
:101BC0009507F1F1F983EA837D836C8396E0929F18
:101BD000D001939FB00D1124A650BE4FFE01319647
:101BE00001900D929A95E1F78093F9010E94280BDC
:101BF00016E08091F8019091F901891771F1189F11
:101C0000C001112486509E4F0E94C30B882329F1E6
:101C1000E091F8011E9FF0011124E650FE4F408133
:101C2000518162817381848195810E94C408809171
:101C3000F80190E00196877099278093F801D9CF39
:101C40000E9485081092F9011092F801EAE2F2E090
:101C500086E0DF011D928A95E9F72C960FB6F8947D
:101C6000DEBF0FBECDBFDF91CF911F910895809150
:101C7000300285958595859508958091300287700D
:101C8000089590913002977081E009F480E0089502
:101C90009091B80292FB222720F9281751F080FB7F
:101CA00092F99093B8028091B7029091B8020C9487
:101CB000520F08958091B80282FB882780F991E045
:101CC00089270C94480E81E00C94480E80E00C9417
:101CD000480E80915402089590915402892B80936C
:101CE0005402089580959091540289238093540260
:101CF000089510925402089590915302892B809375
:101D00005302089580959091530289238093530242
:101D1000089510925302089590915202892B809356
:101D20005202089580959091520289238093520225
:101D300008951092520208958091310208950895F5
:101D40000C949F0E0C94A00E9091B80292FD08C0C6
:101D500090913102981721F0809331020C94A20ED9
:101D6000089580913102882329F01092310280E099
:101D70000C94A20E0895E0910001F0910101809170
:101D800054028083E0910001F091010190818091E3
:101D90005302892B8083E0910001F0910101908131
:101DA00080915202892B808380913102882381F0B7
:101DB000E0910001F09101019081892B8083809155
:101DC0000001909101010E94E02081110E94B10E5A
:101DD00080910001909101010C948C200C949F0E35
:101DE0009091B80292FD10C098E0899F9001112453
:101DF000262B209330020E9446098091300285955F
:101E0000859585950C94EE0E0C944609109230023F
:101E100080E00C94EE0E2091300280958223809316
:101E20003002982F977041F430E0482F082E000CB4
:101E3000550B2417350721F49091B80292FF07C083
:101E40008595859585950E9467090C94060F0895E0
:101E50006FEF7FEF80E090E00C944D2A80E090E0FF
:101E60000E94292A21E0893E9E4F09F020E0822F1E
:101E7000089582E090E00C941B2A83E090E00C949B
:101E80001B2ACF9384E090E00E941B2AC82F82E295
:101E900090E00E941B2A2C2F30E0A901582BCA0188
:101EA000CF910895CF93C92F682F84E090E00E94CE
:101EB0002F2A6C2F82E290E0CF910C942F2AAB0155
:101EC000BC018FE090E00C94412AAB01BC0183E19E
:101ED00090E00C94412A60E070E0CB010C94650F17
:101EE00060E070E0CB010E945F0F0C946B0F69EE15
:101EF0007EEF80E090E00E944D2A60E082E090E07A
:101F00000E942F2A60E083E090E00E942F2A109226
:101F1000F4011092F5011092F6011092F70160E0C1
:101F200084E090E00E942F2A60E082E290E00E942C
:101F30002F2A60E085E090E00E942F2A60E086E092
:101F400090E00E942F2A6FEF87E090E00E942F2AF6
:101F500040E050E0BA0188E090E00E94412A60E051
:101F60008DE090E00E942F2A40E050E0BA0188E125
:101F700090E00E94412A60E087E190E00E942F2AD1
:101F800040E050E0BA018CE190E00E94412A60E01C
:101F900070E080E290E00E944D2A40E050E0BA01FB
:101FA00088E190E00E94412A0C94700F0C94770F06
:101FB000682F8EE090E00C942F2A0E9436226093C6
:101FC0006402709365028093660290936702609347
:101FD000600270936102809362029093630208959D
:101FE00085B7806885BF85B7806885BF089581E023
:101FF00008950C94F70F08950C94FB0F0C94FB0FAD
:102000000C94FE0F0C94FB0F0C9402100C94FB0F1D
:102010000E94F00F85ED92E10E949B220E94061023
:102020000C9404100E94FC0F0C94FB0F0E942122C0
:102030000E94CC130E94711C0C9400109F92AF92CE
:10204000BF92CF92DF92EF92FF920F931F93CF93A5
:10205000DF93CDB7DEB72A970FB6F894DEBF0FBE79
:10206000CDBF0E94DD1381110E94DD0F86E5A82EF1
:1020700082E0B82E00E010E0902E802F0E94131313
:10208000D82EF501C1905F01C826B1F40F5F1F4F34
:102090000A30110589F78FEF89838A831B820E949A
:1020A0002A228160782F9D838C8349815A816B819C
:1020B0008D810E9476042FC08091680281FD0E946C
:1020C0001913E12CFF24F3948C2D8F21F1F00E9441
:1020D000F90F882399F0EE829F82DF2081E009F4D6
:1020E00080E088870E942A228160782F9A878987DA
:1020F0004E815F8168858A850E947604F801EA5ADC
:10210000FD4F8081F826F08206C0E394FF0CF7E0D3
:10211000EF12DACFBBCF0E94B51C0E94DC150E94E3
:102120008020909155028917B9F00E9480208093F9
:1021300055022A960FB6F894DEBF0FBECDBFDF91D1
:10214000CF911F910F91FF90EF90DF90CF90BF90B4
:10215000AF909F900C946D042A960FB6F894DEBF52
:102160000FBECDBFDF91CF911F910F91FF90EF90E8
:10217000DF90CF90BF90AF909F90089580E090E067
:102180000895089526E4829FC0011124FC0127E0F0
:10219000729FE00DF11D1124E60FF11DEE0FFF1FE0
:1021A000E450FF4F859194910895880F991FFC0189
:1021B000E45DFC4F859194910895CF93DF930E9445
:1021C000FE11EC01811520E5920708F03FC0811552
:1021D00040E4940708F0D2C0883E910500F5803EA7
:1021E000910508F002C1883A910570F4853A91058D
:1021F00008F0A6C08130910509F49FC008F4F2C030
:10220000049708F0F2C0EEC08F3B910508F4A1C01E
:10221000803C910508F4E6C0805C9109A5C0811559
:1022200050E2950760F4C11581E0D80708F0DDC0E1
:10223000CD3ED10508F4D6C0CE019065D7C081153A
:1022400020E3920708F093C09F708EC0811545E58A
:10225000940708F046C0811554E5950708F0A6C01C
:10226000C11582E5D80718F5C11521E5D20708F098
:1022700088C0CE01F4E096958795FA95E1F7282F6E
:1022800023703C2F337081E090E002C0880F991FCB
:102290003A95E2F79C68922B2C2F2F702695269565
:1022A00040E2249F90011124822B932B9FC09E011A
:1022B000237033279C2F96959695C115D34508F02A
:1022C00065C041E050E002C0440F551F2A95E2F777
:1022D00080E2989F90011124CA01822B932B9C6865
:1022E00085C0811559E5950798F4C11588E5D8078B
:1022F00008F061C0C11526E5D20708F073C08C2F25
:102300000E9492128F7190E0982F882790626EC081
:1023100081154AE5940708F453C090568115904200
:1023200008F060C08D2F8F710E9492129E0133279A
:1023300030628F71A901582B53C081E090E056C0E4
:10234000855AC82FD0E0C957DE4F888190E090644D
:102350004DC0885AC82FD0E0CC0FDD1FC75ADE4FC2
:1023600088819981946442C00E94D5103FC099270A
:10237000D3FF02C0986C3AC0906C38C09F70906ACE
:1023800035C09C2F8827816F906A30C041E050E0B3
:1023900002C0440F551F2A95E2F780E2989F9001F2
:1023A0001124CA01822B932B9A6820C0982F88276A
:1023B000846F906A1BC09C2F8827806F906A16C01C
:1023C0008F700E9492129E0194E0369527959A95FF
:1023D000E1F72F7030E0322F22273069A901482B16
:1023E000CA0104C080E090E001C0CE01DF91CF912E
:1023F00008950E94C2100E94DD1008958238910550
:1024000069F1B0F48133910509F46DC048F4893263
:10241000910509F463C08A32910509F469C00895F1
:102420008533910509F455C089339105B9F00895B4
:10243000833E910569F138F4803E9105B1F0823E0A
:10244000910509F10895863E9105A9F1873E910510
:10245000B9F1843E910509F064C023C02091B70210
:1024600020FD4FC021FD4DC008958091B70280FD31
:1024700044C08091B80280FF44C08091B70284FDBF
:1024800042C083EE4DC08091B70282FF38C0F5CFC5
:102490008091B70282FD33C08091B80280FD31C0C7
:1024A000ECCF8091B80281FF32C08091B70284FDE9
:1024B0002AC087EE35C08091B70283FF26C0F5CFD2
:1024C0008091B70283FD21C08091B80281FD1FC0B9
:1024D000ECCF8091B70285FD1CC01DC08091B70272
:1024E00085FD19C016C08091B70286FD16C017C0C1
:1024F0008091B70286FD13C010C089E311C082EE3F
:102500000FC080EE0DC080E00BC086EE09C084EEE7
:1025100007C089E205C085E303C08AE201C081E308
:1025200090E008959091B70292FF0DC0282F287176
:10253000283019F4877F846006C0282F2471243046
:1025400011F48B7F886093FF0DC0282F28712831EC
:1025500019F4877E846106C0282F2471243111F478
:102560008B7E88612091B80220FF0DC0382F387112
:10257000383019F4877F816006C0382F31713130CF
:1025800011F48E7F886021FF0DC0282F287128311B
:1025900019F4877E816106C0282F2171213111F441
:1025A0008E7E886194FD877E089580E008950C9466
:1025B000280F0E94DD138FE39CE90197F1F700C01B
:1025C00000000E94DD1380E00E94131380FF04C00E
:1025D0000E94D7120C94772208950C94D9120E946D
:1025E0002E0F811102C00E94D60F0E94390F8093D6
:1025F00068020E94410F9093B8028093B7020E9434
:10260000ED120E943D0F682F70E080E090E00E9484
:10261000E6086091F0017091F1018091F2019091D2
:10262000F3010C941E09E82FF0E0ED53FD4F80817B
:102630000895089580EA8A95F1F7089500C00895F5
:102640000C941A1308950C9422130C9423130C94D5
:1026500022130C942713F894E82FE295EF70F0E022
:1026600031A1282F2F7081E090E001C0880F2A95BA
:10267000EAF7982F9095932391A392A1892B82A397
:10268000789408950F931F93CF93DF93C1E9D1E01E
:1026900089918F3F11F00E942B1381E0CB39D8072D
:1026A000B9F7CAE8D1E001E911E089918F3F11F053
:1026B0000E942B130C171D07C1F7DF91CF911F91BB
:1026C0000F910895CF92DF92EF92FF920F931F9395
:1026D000CF93DF938C01C62FD0E0CE018F569E4F53
:1026E0007C01FC0190819F3F09F44DC0D62EF894E7
:1026F000E92FE295EF70F0E081A19F7021E030E0DA
:1027000001C0220F9A95EAF7822B81A382A120951E
:10271000282322A378940E941E13EAE8F1E020E027
:1027200030E0C12C51E041914F3FB1F0A42FA29570
:10273000AF70B0E090968C9190E04F7002C095958C
:1027400087954A95E2F780FD07C0852F022E01C0CC
:10275000880F0A94EAF701C080E0C82A2F5F3F4F34
:102760002730310501F7F70180818F3F11F00E947A
:102770002B1361E0C11001C060E08D2D0E94201379
:10278000C00FD11FC882DF91CF911F910F91FF9091
:10279000EF90DF90CF9008950E944213E9EBF2E0B2
:1027A000A3ECB2E011921D9282E0E33CF807D1F76E
:1027B0008AE00E9428140C94F403FF920F931F9355
:1027C000CF93DF93CDB7DEB72A970FB6F894DEBF6D
:1027D0000FBECDBF8E010F5F1F4F8AE0F80111922F
:1027E0008A95E9F7F12C6F2DC8010E946213F394CA
:1027F000FAE0FF12F8CF4AE050E0B80189EB92E02E
:102800000E940E2AFF24F394009709F4F12C892BDF
:1028100041F08AE0F801A9EBB2E001900D928A95AF
:10282000E1F72F2D4AE063EC72E089EB92E00E9421
:1028300029140E94FA038F2D2A960FB6F894DEBF52
:102840000FBECDBFDF91CF911F910F91FF900895E3
:102850000895FF920F931F93CF93DF938C01F62E71
:10286000D72FC42F222349F081E080936B020E946E
:102870002A2290936A028093690280916B028823D6
:10288000C1F08091690290916A020E9442220597EC
:1028900080F0EF2DFD2FD8014C2F50E0CD01801B93
:1028A000910B841795071CF48D918193F7CF1092AB
:1028B0006B02DF91CF911F910F91FF9008950E94BD
:1028C0009E210E9411240E942A240E943C240E94DE
:1028D0001210FBCF8091720280FF0BC06091070144
:1028E00085E0689FB001112475956795759567958A
:1028F0002BC081FF09C06091070185E0689FB0018E
:1029000011247595679520C082FF07C0609107016B
:1029100085E0689FB001112417C09091710299233E
:10292000D1F060910601961788F72091070185E0A4
:10293000289F90011124929FA001939F500D112474
:1029400070E0CA010E9488296038710540F4611561
:10295000710519F406C065E070E0862F08958FE7D1
:10296000089581E008958091720280FF08C060910F
:10297000030170E0759567957595679521C081FF96
:1029800006C06091030170E07595679519C082FFDC
:1029900004C06091030170E010C09091700299230F
:1029A00099F0609102019617A0F780910301899F29
:1029B000C001112470E00E9488296038710540F43C
:1029C0006115710519F406C061E070E0862F089565
:1029D0008FE7089581E008958D3E21F40E946A14E6
:1029E000819504C08E3E29F40E946A148093760279
:1029F00008958F3E21F40E946A14819504C0803F9F
:102A000029F40E946A14809375020895893F19F48D
:102A10000E94B31405C08A3F31F40E94B31481951B
:102A20008093770208958B3F21F40E94B31481951F
:102A300004C08C3F29F40E94B31480937802089557
:102A40009FE0980F983078F421E030E0A90102C0AF
:102A5000440F551F9A95E2F7CA0190917402892B91
:102A60008093740208958D3F21F4809172028160F9
:102A70000BC08E3F21F480917202826005C08F3FAF
:102A800029F48091720284608093720208958D3ED1
:102A900039F49091760297FF35C01092760259C0B2
:102AA0008E3E29F4909176021916BCF32BC09091BA
:102AB00075028F3E29F497FF25C01092750249C018
:102AC000803F19F41916CCF31DC090917702893F0D
:102AD00029F41916BCF4109277023BC08A3F19F40E
:102AE00097FF10C0F8CF8B3F39F49091780297FF91
:102AF00009C0109278022DC08C3F21F49091780289
:102B00001916BCF39FE0980F983080F421E030E074
:102B1000A90102C0440F551F9A95E2F7CA0180959A
:102B20009091740289238093740213C08D3F21F425
:102B3000809172028E7F0BC08E3F21F480917202D1
:102B40008D7F05C08F3F29F4809172028B7F809327
:102B5000720280917502811106C080917602811106
:102B600002C01092710280917702811106C080919B
:102B70007802811102C01092700208950E942A22E8
:102B800020917502211104C020917602222321F0A8
:102B900090936F0280936E0220917702211104C0FE
:102BA00020917802222321F090936D0280936C0291
:102BB00083E792E00C94A620EF92FF920F931F936D
:102BC000CF93DF9300D000D000D0CDB7DEB786E042
:102BD000E3E7F2E0DE01119601900D928A95E1F7AC
:102BE000E0907502F09076020091770210917802E1
:102BF000109275021092760210927702109278026B
:102C0000E11003C0FF2009F45DC080916E02909135
:102C10006F020E944222AC0190917102992339F017
:102C20002091080130E02417350758F04BC020915F
:102C300009018AE0289F900111242417350718F014
:102C400041C09F3F19F09F5F90937102EE2061F0A9
:102C50000E946A141E1414F09FEF01C091E0989F27
:102C6000902D112490937502FF2061F00E946A1448
:102C70001F1414F09FEF01C091E0989F902D112434
:102C800090937602309175023323E1F02091760221
:102C90002223C1F045EB3403C0011124992319F01C
:102CA0009093750203C081E08093750235EB230396
:102CB000C0011124992319F09093760203C081E09A
:102CC00080937602011103C0112309F45DC0809145
:102CD0006C0290916D020E944222AC0190917002B0
:102CE000992339F02091040130E02417350758F07A
:102CF0004BC0209105018AE0289F900111242417E0
:102D0000350718F041C09F3F19F09F5F9093700204
:102D1000002361F00E94B314101614F09FEF01C05D
:102D200091E0989F902D112490937702112361F0E8
:102D30000E94B314111614F09FEF01C091E0989F08
:102D4000902D112490937802309177023323E1F093
:102D5000209178022223C1F045EB3403C0011124F5
:102D6000992319F09093770203C081E08093770252
:102D700035EB2303C0011124992319F090937802B5
:102D800003C081E0809378028091750281110BC0AD
:102D900080917602811107C080917702811103C072
:102DA0008091780281110E94BE15EB82FC820D8316
:102DB0001E8386E0FE013196A3E7B2E001900D92FA
:102DC0008A95E1F726960FB6F894DEBF0FBECDBF09
:102DD000DF91CF911F910F91FF90EF900895E3E75E
:102DE000F2E086E0DF011D928A95E9F71092710208
:102DF00010927002109272020895EF92FF920F9358
:102E00001F93CF93DF938B01682F11110AC04423C6
:102E100029F0E82FF0E0ED5BFB4F6491762F862FD1
:102E200075C0212F30E0E82FF0E0442321F0ED5B66
:102E3000FB4FE491F0E046E0049FC0011124CFEF86
:102E4000D0E0BE010E9474294BEA4603C001479FAF
:102E5000900D1124800F911D800F911D982F990FB7
:102E6000890FAE01421B530B4E9FD0014F9FB00DF7
:102E70005E9FB00D11249B2F189FA0011124452F98
:102E800055278E01041B150B0E9FA0010F9F500D9F
:102E90001E9F500D11247E01E81AF108E29E800168
:102EA000E39E100DF29E100D1124212F3327C21B1B
:102EB000D30BCE9F9001CF9F300DDE9F300D11249C
:102EC00062307105A9F048F46115710569F061304F
:102ED0007105C9F48B2F752F0DC06430710581F019
:102EE00058F06630710579F47E2F8B2F932F0DC02B
:102EF000832F7B2F9E2F09C08E2F7B2F952F05C0F0
:102F00008E2F732F02C07E2F852F692FDF91CF91D7
:102F10001F910F91FF90EF90089541E00E94FD16E0
:102F2000089508950E948D170895CF93DF93762F0B
:102F3000E901682F842F0E949217798368838A831E
:102F4000DF91CF9108958091CD02282F269530E012
:102F50002115310519F48170826005C025323105D3
:102F600024F0817088648093CD02089588E090E019
:102F70000C94232ACF92DF92EF92FF926B017C0197
:102F80000E94A317B701A60188E090E0FF90EF90A0
:102F9000DF90CF900C94412AEDECF2E083E0808347
:102FA00011828FEF82838383148260817181828199
:102FB00093810C94BA178091CD0280FF02C0869550
:102FC000089580E008959091D102933018F49F5FA6
:102FD0009093D102882351F06091CD027091CE027E
:102FE0008091CF029091D0020C94BA17089581E09D
:102FF0000C94E3179091D102992319F0915090937A
:10300000D102882351F06091CD027091CE0280915F
:10301000CF029091D0020C94BA17089581E00C94DD
:10302000FA1770E00C942F1E60910E018091CD0272
:1030300080FF0AC080910D0123E0829FC00111240E
:103040008E529D4F0C94111880910F019091100198
:10305000891780F7E82FF0E09F01220F331FE20F5E
:10306000F31FEE52FD4F1182108212828F5FF0CF5C
:103070009091CD0290FF16C090910F012091100108
:10308000921770F4E92FF0E0DF01AA0FBB1FEA0FDF
:10309000FB1FEE52FD4F8183608342839F5FF0CF21
:1030A0000C9414180895CF93DF9300D01F92CDB7DE
:1030B000DEB79091CD0290FF0AC09E012F5F3F4F77
:1030C0000E9495174B8169818A810E9438180F9060
:1030D0000F900F90DF91CF910895CF93DF93EC0184
:1030E000EC81F0E0E25CFC4F4491EDECF2E06281B7
:1030F00081810E9453188C818F5F8C83DF91CF91E7
:103100000895CF93DF93EC01EDECF2E0438162810F
:103110008C810E9453188C818F5F8C83DF91CF91BB
:1031200008950F931F93CF93DF9300D01F92CDB7D5
:10313000DEB78C018091790281110AC09E012F5F58
:103140003F4F4FEF6FEF0E9495178A81809379026E
:10315000F8018481813051F028F0823061F440918F
:1031600079020AC08091790240E007C0609179023B
:1031700040E080E003C040E080E060E00E9438185A
:10318000F801848190E0019663E070E00E94882954
:1031900084830F900F900F90DF91CF911F910F912B
:1031A0000895AF92BF92CF92DF92EF92FF920F936A
:1031B0001F93CF93DF9300D01F92CDB7DEB7182FA8
:1031C000F62E042FE22E9091CD0290FF6DC0E92FD4
:1031D000E695AE2FB0E0A556BE4F8C918093850248
:1031E0009E7F923061F49E012F5F3F4F812F0E949E
:1031F00095174B8169818A810E94381843C08230BB
:1032000019F40091D0023EC0863019F41091CE021C
:1032100039C08930D9F38931A9F5E9518E2F8170F0
:10322000D82EE695F0E0E25CFB4FA590B490C12C5F
:10323000BB2460911101C61618F52C2D30E0A29E1A
:10324000C001A39E900DB29E900D112470E00E94CB
:103250007429812FD11002C0860F01C0861B909166
:103260000F01290F311DA901440F551F240F351FD0
:103270002E523D4F402F6F2D0E949517C394D9CFEA
:103280000E9414181093CE02F092CF020093D00245
:10329000EE2051F06091CD027091CE028091CF026C
:1032A0009091D0020E94BA170F900F900F90DF916B
:1032B000CF911F910F91FF90EF90DF90CF90BF9033
:1032C000AF900895EDECF2E09181282F4381628167
:1032D00088E0890F0C94D11881E00C946219EDEC10
:1032E000F2E09181282F4381628188EF890F0C944D
:1032F000D11881E00C946F19EDECF2E0628121E1CC
:10330000620F08F46FEF282F438181810C94D1184C
:1033100081E00C947C19EDECF2E0628121E1621B0A
:1033200008F460E0282F438181810C94D11881E05A
:103330000C948B19EDECF2E0438121E1420F08F48B
:103340004FEF282F628181810C94D11881E00C9479
:103350009A19EDECF2E0438121E1421B08F440E0D0
:10336000282F628181810C94D11881E00C94A919D5
:1033700020E00C94D118FF920F931F93CF93DF930B
:10338000EC01F12C0FEF10E060911101F616F0F452
:1033900080910F012F2D30E0280F311DC901880FBA
:1033A000991F280F391F2E523D4F70E0C8010E940F
:1033B0008829962F8C814091D0026091CF02F99E8E
:1033C000800D11240E949517F394DECF0E941418EB
:1033D0009A818C8190FF02C08F5F01C081508C83E5
:1033E000DF91CF911F910F91FF900895AF92BF92FF
:1033F000CF92DF92EF92FF920F931F93CF93DF93C1
:10340000FC01828180FF02C00FEF01C001E010E0EB
:103410004EE0A42E80911101181708F043C080914E
:103420000F01C12ED12CE601C80FD11DCE01880F8E
:10343000991FC80FD91FCE52DD4F198218821A82E8
:1034400034E0E32EF12CB12C80917B028B0D8F3078
:103450002CF06A2D0E946629892F05C087FF03C0C2
:1034600090911101890F082E000C990BC816D906EE
:1034700091F48091D0028E9DA0018F9D500D11245A
:1034800055954795559547959E016091CF0280913E
:10349000CE020E949517B00EF1E0EF1AF108A1F6E6
:1034A0001F5FB8CF0E94141880917B02013031F465
:1034B000811102C080911101815007C090E00196F6
:1034C0006091110170E00E94882980937B02DF9156
:1034D000CF911F910F91FF90EF90DF90CF90BF9011
:1034E000AF900895CF9380910F01909110018917AB
:1034F00070F4E82FF0E09F01220F331FE20FF31F5B
:10350000EE52FD4F1182108212828F5FF0CFC0E029
:1035100060911101C617C0F5EC2FF0E070E0CF010B
:103520000E94882920910F01820F20917A02022E99
:10353000000C330B90E0E217F307CCF020910C0164
:10354000022E000C330B2E173F078CF09C01220F2C
:10355000331F820F931F9C012E523D4F4091D0028A
:103560006091CF028091CE020E9495170BC0FC01A2
:10357000EE0FFF1F8E0F9F1FFC01EE52FD4F1182B9
:1035800010821282CF5FC4CF0E94141820910B01C9
:1035900080917A02820F80937A0290910C01920FAF
:1035A00090930C0119165CF4082E000C990B4091B5
:1035B000110150E041505109841795071CF02195E5
:1035C00020930B01CF9108958F929F92AF92BF925B
:1035D000CF92DF92EF92FF920F931F93CF93DF93DF
:1035E0008C01FC014481C42FD0E09E01DE010E94C9
:1035F000CC299B01AC010E94E2296B017C01E0E235
:10360000F0E0EC1BFD0BA5E5B0E09B01AC010E94D6
:10361000E2294B015C019F01DF010E94C4299B014B
:10362000AC010E94ED299B01AC012C0D3D1D4E1DEE
:103630005F1DC501B4010E949C29C22FD22F2A32DE
:1036400028F4F3E02F9F900111240DC025E530E010
:103650002C1B3109C901880F991F280F391F37FF0B
:1036600002C02F5F3F4F35952795C22FC095F12C93
:1036700085E5E82EED1A80911101F816C8F4F1FCE9
:1036800002C08E2D01C08D2F90910F012F2D30E0A3
:10369000290F311DA901440F551F240F351F2E522C
:1036A0003D4F4C2F6091CF020E949517F394E3CFCA
:1036B0000E941418F8018481811102C091E003C0B6
:1036C000803219F49FEF90930A0190910A01890FBB
:1036D000F8018483DF91CF911F910F91FF90EF90BC
:1036E000DF90CF90BF90AF909F908F9008950F93F1
:1036F0001F93CF93DF93EC0100E010E08091110164
:10370000282F30E00217130724F590910F0198013C
:10371000290F311DA901440F551F240F351F2E52AB
:103720003D4F869590E04C81081719071CF44423FF
:1037300031F002C0411103C04091D00201C040E00D
:103740006091CF028091CE020E9495170F5F1F4FAC
:10375000D5CF0E9414188C8190E001968170992732
:103760008C83DF91CF911F910F910895EDECF2E0E2
:1037700080818E7F808360817181828193810E94AC
:10378000BA17109286022FEF80E792E02150804016
:103790009040E1F700C000000C941418EDECF2E04A
:1037A00080818E7F8083109286022FEF80E792E0E7
:1037B000215080409040E1F700C000000C941418A4
:1037C000109286028091830281110AC081E0809369
:1037D00083028091CD028170809382020C94CE1B73
:1037E00008956091CD02669570E04BE050E082E173
:1037F00091E00E94012A892B19F481E080938602CE
:103800000E942A2290937D0280937C0208959091D9
:10381000CD0290FF35C09170811102C0926006C048
:10382000853210F0986402C0880F982B9093CD02D7
:10383000662351F06091CD027091CE028091CF024B
:103840009091D0020E94BA176091CD02669570E007
:103850004BE050E082E191E00E94012A892B19F0AF
:103860001092860202C00E94F11B81E080937F02C9
:103870004091D0026091CF028091CE020C94B81991
:103880000895682F9091CD02969581E0890F853239
:1038900008F081E00C94071C81E00C94411C682F17
:1038A0009091CD0296958FEF890F09F484E20C94E4
:1038B000071C81E00C944F1C61E00C94071CEDEC9C
:1038C000F2E080818160808386950C945C1C8091FD
:1038D000CD0280FD0C94B61B0C945F1C60E00C9430
:1038E000071C8091840281112EC00E942E0F81112D
:1038F00004C00E94D60F0E94CC170E94B617609396
:10390000CD027093CE028093CF029093D0026E7F4F
:1039100061F40E94CC170E94B6176093CD02709399
:10392000CE028093CF029093D0020E94A3171092F0
:1039300086028091CD0280FF03C086950E946E1C96
:1039400081E0809384020895EDECF2E08081816053
:10395000808386950C946E1C109283028091820263
:1039600081110E94A41C0C94F11B0F931F93CF9301
:10397000DF9380918602882309F485C080918502B7
:10398000E091CD02E695E81BE0937E02823049F497
:10399000F0E0E65CFC4FE491CE2FD0E00DE618E1BC
:1039A00049C0863049F4F0E0E95CFC4FE491CE2F49
:1039B000D0E001E818E13EC0893051F4E695F0E02E
:1039C000EC5CFC4FE491CE2FD0E00BEB19E132C060
:1039D0008F3051F4E695F0E0EF5CFC4FE491CE2F90
:1039E000D0E006EF19E126C0853149F4F0E0E25D50
:1039F000FC4FE491CE2FD0E002E71AE11BC08831E2
:103A000081F0833239F4ECE2F3E0C591D49101E91D
:103A100018E110C0843251F4C4EFD1E007E71BE194
:103A200009C0C8E2D0E004EE1AE104C0C0EDD7E05E
:103A300001E917E180917F02882361F010927F02F3
:103A40000E942A2290937D0280937C021092810230
:103A5000109280020E942A22E0917C02F0917D0265
:103A60008E1B9F0B8F3F9F4770F4EC0FFD1FF09351
:103A70007D02E0937C028CE792E0F801DF91CF9128
:103A80001F910F910994DF91CF911F910F9108958C
:103A9000882311F0FA0101C0FB010994CF93DF9351
:103AA000C82FD62F0E94DB178C1740F00E94DB171F
:103AB0008D1720F4DF91CF910C944C1C8C2FDF914B
:103AC000CF910C945C1C1F93CF93DF93FB01128169
:103AD000112309F4BCC0EC010E94690E8272CD3C36
:103AE000FCE5DF0709F497C008F043C0C73CECE5EC
:103AF000DE0709F47CC0D8F4C43C9CE5D90709F47E
:103B00006AC038F4C33CDC4509F0A4C00E94671CBD
:103B1000A0C0C53C9CE5D90709F462C0C63CDC45A1
:103B200009F098C049E759E16CE679E15DC0CA3C0B
:103B3000FCE5DF0709F465C070F4C83CECE5DE077E
:103B400009F45AC0C93CDC4509F084C048E859E191
:103B500067E979E149C0CB3C9CE5D90709F456C037
:103B6000CC3CDC4509F076C04EE058E167EF77E1E8
:103B70003BC0C23DFCE5DF0709F45AC098F4CF3CD6
:103B80009CE5D90709F44EC008F44AC0C03DFCE5E5
:103B9000DF0709F44AC0C13DDC4509F05BC06EE0B7
:103BA00089E04EC0C53D9CE5D90709F447C050F4F3
:103BB000C33DFCE5DF07F9F1C43DDC4509F04AC02F
:103BC00088E142C0C63D9CE5D907E9F1CE35DD4527
:103BD00009F43FC03FC049E55CE16CE47CE104C00E
:103BE0004CE45CE169E57CE10E94481D32C04CE692
:103BF00059E169E779E1F8CF47E959E168E879E106
:103C0000F3CF45EB59E166EA79E1EECF46EA59E1B7
:103C100065EB79E1E9CF47EF57E16EE078E1E4CF7A
:103C200081E012C065E082E00BC068E086E008C079
:103C300064E18FE005C067E185E102C062E289E1ED
:103C40000E944E1D06C083E20E945C1C02C011E06F
:103C500001C010E0812FDF91CF911F910895539AF9
:103C60002BB1277F3BB138604FB7F894FC01CB01F3
:103C7000880F991F680F791F6E0F7F1FE617F707D0
:103C800089F0819198E03BB9000000C087FF2BB913
:103C9000880F000000C000C000C02BB900C09A957A
:103CA00091F7ECCF4FBF8FE594E00197F1F700C09B
:103CB000000008950F931F93CF93DF93C42FD22F4B
:103CC000FC0182818823C9F0409389020E942A2244
:103CD000909388028093870280E28C0F883008F0EE
:103CE00057C0C77081E001C0880FCA95EAF7DF911D
:103CF000CF911F910F910C94F80580918902481380
:103D000030C080918702909188020E944222883CB4
:103D1000910538F510E21D0FCD17B9F080E28C0F38
:103D2000883040F4C77081E001C0880FCA95EAF777
:103D30000E94FF05183028F581E09D2F977001C083
:103D4000880F9A95EAF70E94F805802F0E94EF05E8
:103D50001830F0F4D77081E001C0880FDA95EAF7E7
:103D60000AC080E28C0F883098F4C77081E001C0EF
:103D7000880FCA95EAF7DF91CF911F910F910C94AC
:103D8000FF05802FDF91CF911F910F910C94EF05CC
:103D9000DF91CF911F910F9108950F939C01CB015B
:103DA000243F4CE5340731F188F4293DFCE53F0719
:103DB000D9F02A3D4CE5340779F1283D3C45A9F579
:103DC00006E221EE41EE68ED7CE52BC0263FFCE5E6
:103DD0003F07E1F0A8F0273F3C4539F507E225EE23
:103DE00046EE67EF7CE51DC007E225EE45EE69ED86
:103DF0007CE517C006E221EE40EE64EF7CE511C0E1
:103E000007E225EE44EE65EF7CE50BC006E221EE0D
:103E100042EE66EF7CE505C008E221E045EE6AED82
:103E20007CE50E945A1E80E008C0FC018281882344
:103E300019F01092890201C081E00F910895CF938B
:103E4000DF93EC01FB018281882309F41FC1C2309A
:103E5000FCE5DF0708F41BC1C6319CE5D90738F043
:103E60009E012B5F3C452930310508F010C10E94AE
:103E7000410F9093B8028093B702C031ECE5DE07A2
:103E800009F4C3C008F041C0C8308CE5D80709F474
:103E90009AC0F0F4C430ECE5DE0709F487C068F49A
:103EA000C2308CE5D80709F477C0C330DC4509F08F
:103EB000E3C08091B702826076C0C630ECE5DE07D1
:103EC00009F46EC008F07BC08091B70288606BC0B7
:103ED000CC308CE5D80709F485C068F4CA30ECE52D
:103EE000DE0709F474C008F079C00E94850880914B
:103EF000B702806858C0CE308CE5D80709F476C088
:103F000008F07FC08091B7028BC0CC3FECE5DE07A4
:103F100009F44FC018F5C3318CE5D80709F47DC00A
:103F200078F4C131ECE5DE0709F473C0C231DC4539
:103F300009F0A2C00E9485088091B7028F7733C034
:103F4000C5318CE5D80709F472C008F486C0CB3FB0
:103F5000DC4509F091C08091B8023EC0C115FDE575
:103F6000DF0709F45FC058F4CE3F9CE5D90709F498
:103F700044C008F43FC08091B80282602DC0C230B6
:103F8000FDE5DF0709F475C008F45DC0C330DD4509
:103F900009F072C080E06EC08091B702816003C0FA
:103FA0008091B70280618093B70266C08091B702AA
:103FB00011C08091B80282608093B8025DC0809188
:103FC000B7028062F0CF8091B7028064ECCF80911D
:103FD000B70288608460E7CF8160EECF8091B7023E
:103FE0008E7FE1CF8091B7028D7FDDCF8091B702C8
:103FF000877FD9CF8091B80218C08091B8028D7F99
:10400000DBCF8091B7028F7ECECF8091B7028F7DBC
:10401000CACF8091B7028F7BC6CF8091B702877FCE
:104020008B7FC1CF8091B8028D7F8E7FC5CF80916D
:10403000B70282FB222720F991E0922790FB82F9B8
:1040400090FB83F9B0CF8091B802982F9095917032
:104050008E7F892B90FB81F9AFCF0E9485088091DC
:10406000B70287FB222720F991E0922790FB87F97E
:104070009ACF81E00E94D80F8091B7029091B80248
:104080000E94520F0E94850880E001C081E0DF910C
:10409000CF910895CF93DF9386319C4541F5EB0195
:1040A0000E94690E982F8A812091000130910101B0
:1040B000882379F09A7A81E009F480E080938A027B
:1040C000911102C069E201C065E3C9010E94762135
:1040D0000AC080918A02811102C069E201C065E3D1
:1040E000C9010E9481210E94BB0E80E001C081E0D5
:1040F000DF91CF9108959093900280938F0208955D
:10410000E0918F02F0919002309721F00190F081C0
:10411000E02D099480E00895E0918F02F0919002E3
:10412000309799F020912701222359F02091B7026E
:1041300027FF07C0DC012C9111962C93119725E0E5
:104140002C930280F381E02D09940895E0918F0271
:10415000F0919002309739F022E0DC012C9304803A
:10416000F581E02D0994089520918D0230918E0201
:104170002817390771F090938E0280938D02E09199
:104180008F02F0919002309721F00680F781E02DA8
:104190000994089520918B0230918C0228173907D9
:1041A00071F090938C0280938B02E0918F02F091DA
:1041B0009002309721F00084F185E02D0994089554
:1041C000FC01329680912701882331F08091B7025B
:1041D00087FF02C09EE101C096E080E0915028F088
:1041E00021912223D9F38F5FF9CF0895662351F1EE
:1041F000209127012223E9F02091B70227FF19C05F
:10420000462F4695469546954E31E0F4677021E07D
:1042100030E002C0220F331F6A95E2F7FC01E40F81
:10422000F11D828190E02823392381E0232B69F45A
:1042300009C0FC01329608962191621729F0E8170F
:10424000F907D1F780E0089581E008959C01FC0111
:1042500032969FEF80E04191461789F09F3F19F415
:10426000411101C0982F8F5F8630A9F79F3F39F029
:10427000F901E90FF11D97FDFA95628308950895FC
:104280009C012A5F3F4FFC014281461301C012820C
:10429000019682179307B9F70895262F269526953C
:1042A00026952E3168F4FC01E20FF11D677021E0C4
:1042B00030E001C0220F6A95EAF78281282B228321
:1042C0000895262F2695269526952E3170F4FC010B
:1042D000E20FF11D677021E030E001C0220F6A9506
:1042E000EAF72095828128232283089520912701CF
:1042F000222329F02091B70227FD0C944D210C9424
:10430000262120912701222329F02091B70227FDA1
:104310000C9461210C94402120912701FC013296DC
:10432000222331F08091B70287FF02C08EE101C0E5
:1043300086E0DF011D928A95E9F7089508950895B2
:104340000C949F210C949F21CF930E94A2210E9444
:10435000DD130E94A021C0E08C2F0E941313811155
:1043600004C0CF5FCA30C1F701C081E0CF9108958A
:104370000C949F210C94B82180910403843059F14E
:104380000E94BA2180E00E946D040E94E01B1092FE
:10439000910220E488E190E00FB6F894A89580930C
:1043A00060000FBE2093600083B7817F846083BF6D
:1043B00083B7816083BF7894889583B78E7F83BFEE
:1043C0000FB6F894A8958091600088618093600092
:1043D000109260000FBE08950C949F210E948508E2
:1043E0000E9480200E946D040E94AC1C0C94EC2161
:1043F0001F920F920FB60F9211248F939F93AF933A
:10440000BF9380919102811113C08091FC02909121
:10441000FD02A091FE02B091FF024196A11DB11DC7
:104420008093FC029093FD02A093FE02B093FF02E2
:10443000BF91AF919F918F910F900FBE0F901F90E2
:10444000189582E084BD93E095BD9AEF97BD809367
:104450006E0008952FB7F8948091FC029091FD02B0
:10446000A091FE02B091FF022FBF08952FB7F894DC
:104470006091FC027091FD028091FE029091FF021A
:104480002FBF08959C014FB7F8948091FC02909142
:10449000FD02A091FE02B091FF024FBF821B930B61
:1044A000089578941F920F920FB60F9211248F9354
:1044B0009F93AF93BF938091FC029091FD02A091D6
:1044C000FE02B091FF020196A11DB11D8093FC0276
:1044D0009093FD02A093FE02B093FF02BF91AF91B3
:1044E0009F918F910F900FBE0F901F90189581E0B4
:1044F0008093E00080E28093D8001092C9008FE1A1
:104500009EE40197F1F700C0000087E090EBDC012A
:1045100080930D0390930E03A0930F03B0931003A9
:104520009CE088E10FB6F894A895809360000FBED8
:1045300090936000FFCF9093C1018093C0010895D4
:104540008091B502089590910403943031F58093E1
:104550009202709394026093930282E08093E90048
:104560008FEF9091E800815095FD06C095ED9A95EA
:10457000F1F700008111F5CF8091E80085FF0DC0B3
:1045800040E050E063E070E082E992E00E94C824DD
:104590008091E8008E778093E8000895BC0184E064
:1045A0000C94A322BC0183E00C94A32222E020936C
:1045B000E9002FEF3091E800215035FD06C035EDC0
:1045C0003A95F1F700002111F5CF2091E80025FF81
:1045D0000BC040E050E066E070E00E94C82480918B
:1045E000E8008E778093E8000895CF93DF932091C1
:1045F0002701222339F02091B70227FF03C060E290
:1046000022E002C068E021E02093E9002FEF309122
:10461000E800215035FD06C035ED3A95F1F7000070
:104620002111F5CF2091E80025FF1DC0EC018091FC
:104630002701811105C040E050E068E070E003C050
:1046400070E040E050E0CE010E94C8248091E80074
:104650008E778093E80080E2FE01A5E9B2E0019048
:104660000D928A95E1F7DF91CF9108958091030330
:10467000811109C00E9459260E94B6268091E2004D
:1046800084608093E20008951092030308950895D2
:104690000895089542E061EC81E00E94D22542E253
:1046A00061EC82E00C94D22580910603833009F4FA
:1046B00060C030F4813071F0823009F499C00895FF
:1046C0008A3009F485C08B3009F46BC0893009F059
:1046D000A7C020C080910503813A09F0A1C0809154
:1046E000E800877F8093E8008091090390910A0396
:1046F000892B21F460E285E992E003C060E080E06C
:1047000090E070E00E9413258091E8008B77809301
:10471000E800089580910503813209F081C08091FD
:10472000090390910A03029708F07AC08091E8008B
:10473000877F8093E8008091E80082FD05C080912A
:1047400004038111F8CF6CC02091F3008091F20036
:1047500090E0922B029729F48091F1008B7F8130B9
:1047600021F48091F1008093B5028091E8008B776D
:1047700053C080910503813A09F052C0809109032A
:1047800090910A03892B09F04BC08091E800877F44
:104790008093E8008091E80080FFFCCF80912701A2
:1047A00036C0809105038132D9F58091090390913B
:1047B0000A03892BA9F58091E800877F8093E800A0
:1047C0000E94072680910703809327010C94850897
:1047D00080910503813221F58091E800877F8093E5
:1047E000E8000E940726809108038093B60208958E
:1047F00080910503813AA1F48091E800877F80933E
:10480000E8008091E80080FFFCCF8091B6028093A1
:10481000F1008091E8008E778093E8000C940726E1
:10482000089584B7877F84BF0FB6F894A8958091C8
:104830006000886180936000109260000FBE90E07D
:1048400080E80FB6F89480936100909361000FBEEA
:104850000C9408100E9459260E94B626E2EEF0E061
:1048600080818460808378940E944B290E94161076
:104870008DE191E00C947B20809104038530A9F4B4
:1048800080910403853079F40E94BC218091020359
:104890008823B1F30E94A421882391F30E94B224BB
:1048A0000E948508EDCF0E94EE210C941E100C94FE
:1048B0005924292F332723303105C9F060F42130E2
:1048C000310581F02230310509F044C08BE390E0DE
:1048D0002FE635E043C021323105E1F022323105C7
:1048E00049F138C082E190E02AEA35E037C09927E3
:1048F0008130910549F028F0029761F5E3E4F5E095
:1049000005C0EBE6F5E002C0E5E5F5E0849190E056
:104910009F0124C06115710541F061307105D1F42A
:1049200089E090E02AE935E019C089E090E021E8CB
:1049300035E014C06115710541F06130710551F425
:1049400086EB90E02CEB35E009C080E490E022E7B4
:1049500036E004C080E090E020E030E0FA013183EE
:104960002083089580E189BD82E189BD09B400FEFC
:10497000FDCF8091D8008F7D8093D8008091E0009A
:1049800082608093E0008091E00081FDFCCF08957B
:10499000CF92DF92EF92FF920F931F93CF93DF930B
:1049A000EC018B017A010E942626811133C0E114AB
:1049B000F10439F0F70180819181081B190BC80FB0
:1049C000D91FC12CD12C0115110519F18091E800D6
:1049D00085FD16C08091E8008E778093E800E11491
:1049E000F10449F0F70180819181C80ED91ED1826E
:1049F000C08285E00FC00E942626882321F30AC0CA
:104A000089918093F10001501109FFEFCF1ADF0A5D
:104A1000DACF80E0DF91CF911F910F91FF90EF905F
:104A2000DF90CF90089520910B0330910C0326174F
:104A3000370748F06115710539F42091E8002E77A9
:104A40002093E80001C0B901FC0120E06115710567
:104A500079F1809104038823F1F18530F1F180919F
:104A6000E80083FD3CC08091E80082FD2EC080916B
:104A7000E80080FFEBCF2091F3008091F20090E0FE
:104A8000922B6115710551F08830910538F4219110
:104A90002093F100615071090196F3CF21E008974E
:104AA00009F020E08091E8008E778093E800CECF77
:104AB0002111CFCF0AC080910403882361F0853093
:104AC00061F08091E80083FD0AC08091E80082FFD8
:104AD000F2CF80E0089582E0089583E0089581E0B8
:104AE000089520910B0330910C032617370748F0E7
:104AF0006115710539F42091E8002E772093E800C4
:104B000001C0B901FC0120E06115710591F18091AE
:104B10000403882309F440C0853009F43FC0809124
:104B2000E80083FD3DC08091E80082FD2FC08091A8
:104B3000E80080FFE9CF2091F3008091F20090E03F
:104B4000922B6115710559F08830910540F424913C
:104B50002093F1003196615071090196F2CF21E066
:104B6000089709F020E08091E8008E778093E800B4
:104B7000CBCF2111CCCF0AC080910403882361F0F0
:104B8000853061F08091E80083FD0AC08091E800E3
:104B900082FFF2CF80E0089582E0089583E00895D7
:104BA00081E00895982F973068F59093E900981761
:104BB00039F07091EC002091ED005091F00003C0AD
:104BC000242F762F50E021FD02C09F5FECCF309163
:104BD000EB003E7F3093EB003091ED003D7F309352
:104BE000ED003091EB0031603093EB007093EC00FE
:104BF0002093ED005093F0002091EE0027FDE5CFCB
:104C000080E008958F708093E90081E0089580919D
:104C1000050387FF11C08091E80082FD05C08091E7
:104C200004038111F8CF11C08091E8008B770BC08D
:104C300080910403882349F08091E80080FFF8CF39
:104C40008091E8008E778093E80008952091E40039
:104C50003091E50095E64091EC00842F817040FF93
:104C600023C08091E80080FD1DC08091040388234B
:104C700099F0853099F08091EB0085FD11C040914D
:104C8000E4005091E5002417350729F3915011F005
:104C90009A01E1CF84E0089582E0089583E00895C9
:104CA00081E0089580E008954091E80042FFDDCF63
:104CB00008950E94C7260E94CF26E0EEF0E0808192
:104CC00081608083E8EDF0E080818F77808319BC7C
:104CD000A7EDB0E08C918E7F8C9380818F7E808356
:104CE0001092030308950F931F93CF93DF930E94B5
:104CF000C7260E94CF26C8EDD0E088818F778883B1
:104D000088818068888388818F7D888319BC109210
:104D1000040310920003109202031092010300EEAC
:104D200010E0F80180818B7F808388818160888397
:104D300042E060E080E00E94D225E1EEF0E0808178
:104D40008E7F8083E2EEF0E08081816080838081CD
:104D500088608083F80180818E7F80838881806174
:104D60008883DF91CF911F910F910895E8EDF0E0D6
:104D700080818F7E8083E7EDF0E080818160808399
:104D800084E082BF81E0809303030C947326E8EDF6
:104D9000F0E080818E7F80831092E200089510926F
:104DA000DA001092E10008951F920F920FB60F9251
:104DB00011242F933F934F935F936F937F938F9320
:104DC0009F93AF93BF93EF93FF938091E10082FF96
:104DD0000BC08091E20082FF07C08091E1008B7FD1
:104DE0008093E1000E944A298091DA0080FF1FC071
:104DF0008091D80080FF1BC08091DA008E7F809365
:104E0000DA008091D90080FF0DC080E189BD82E188
:104E100089BD09B400FEFDCF81E0809304030E94A8
:104E2000362305C019BC109204030E9444238091CC
:104E3000E10080FF19C08091E20080FF15C08091E1
:104E4000E2008E7F8093E2008091E2008061809397
:104E5000E2008091D80080628093D80019BC85E080
:104E6000809304030E9448238091E10084FF30C0B6
:104E70008091E20084FF2CC080E189BD82E189BD80
:104E800009B400FEFDCF8091D8008F7D8093D800BB
:104E90008091E1008F7E8093E1008091E2008F7E1F
:104EA0008093E2008091E20081608093E200809133
:104EB0000003882311F084E007C08091E30087FDA0
:104EC00002C081E001C083E0809304030E94492373
:104ED0008091E10083FF29C08091E20083FF25C01B
:104EE0008091E100877F8093E10082E0809304035A
:104EF000109200038091E1008E7F8093E100809109
:104F0000E2008E7F8093E2008091E20080618093D6
:104F1000E20042E060E080E00E94D2258091F00053
:104F200088608093F0000E944723FF91EF91BF912A
:104F3000AF919F918F917F916F915F914F913F9131
:104F40002F910F900FBE0F901F9018951F920F92E8
:104F50000FB60F9211242F933F934F935F936F934C
:104F60007F938F939F93AF93BF93CF93DF93EF93F1
:104F7000FF93C091E900CF708091EC00D82FD170E1
:104F800080FDD0E81092E9008091F000877F809347
:104F9000F00078940E94EA271092E9008091F000D6
:104FA00088608093F000CD2BCF70C093E900FF9113
:104FB000EF91DF91CF91BF91AF919F918F917F91B1
:104FC0006F915F914F913F912F910F900FBE0F9076
:104FD0001F9018951F93CF93DF93CDB7DEB7AA9795
:104FE0000FB6F894DEBF0FBECDBFE5E0F3E08091D1
:104FF000F100819323E0ED30F207C9F70E945423BA
:105000008091E80083FF2EC18091050390910603F3
:10501000492F50E04A30510508F024C1FA01EC58FC
:10502000FF4F0C94BE29803821F0823809F01AC154
:1050300008C08091010390910203992389F0826056
:105040000FC0809109038F70873008F00BC18093E7
:10505000E9008091EB0085FB882780F91092E90038
:105060009091E800977F9093E8008093F100109270
:10507000F100D1C0282F2D7F09F0F4C0882319F04A
:10508000823061F0EFC080910703813009F0EAC0FF
:10509000933009F080E0809302032EC080910703D3
:1050A00081112AC0809109038F702FEF280F2630BD
:1050B00008F0D8C08093E9002091EB0020FF1CC0CD
:1050C000933021F48091EB00806214C09091EB004A
:1050D00090619093EB0021E030E0A90102C0440F01
:1050E000551F8A95E2F74093EA001092EA008091FA
:1050F000EB0088608093EB001092E9008091E8005B
:10510000877F8093E8000E940726ACC08111AAC067
:10511000109107031F778091E3008078812B8093A3
:10512000E3008091E800877F8093E8000E940726D3
:105130008091E80080FFFCCF8091E300806880933D
:10514000E300111102C082E001C083E080930403F8
:1051500089C08058823008F085C080910703909103
:1051600008038C3D53E0950779F583E08A838AE252
:1051700089834FB7F894DE01139620E03EE051E2B8
:10518000E32FF0E050935700E49120FF03C0E29535
:10519000EF703F5FEF708E2F90E0EA3010F0C7960F
:1051A00001C0C0968D939D932F5F243149F74FBF67
:1051B0008091E800877F8093E8006AE270E0CE018A
:1051C00001960E94132516C06091090370910A038D
:1051D000AE014F5F5F4F0E945724BC01892B09F439
:1051E00041C09091E800977F9093E80089819A816F
:1051F0000E9471258091E8008B778093E80032C08F
:10520000803881F58091E800877F8093E800809165
:1052100000038093F1008091E8008E7772CF8111B6
:1052200021C0809107039091080399270297D4F435
:105230008091E800877F8093E80080910703809346
:1052400000030E94072680910003811106C080910F
:10525000E30087FD02C081E001C084E08093040385
:105260000E944A238091E80083FF0AC08091E800F1
:10527000877F8093E8008091EB0080628093EB0051
:10528000AA960FB6F894DEBF0FBECDBFDF91CF91C7
:105290001F9108950895CF93809104038823A1F06E
:1052A000C091E900CF709091EC00892F817090FD42
:1052B00080E8C82B1092E9008091E80083FD0E94ED
:1052C000EA27CF70C093E900CF91089587FB082E9D
:1052D000062687FD819567FD61950E94F5290EF4EC
:1052E000919507FC81950895AA1BBB1B51E107C04E
:1052F000AA1FBB1FA617B70710F0A61BB70B881F66
:10530000991F5A95A9F780959095BC01CD010895F4
:1053100097FB072E16F4009407D077FD09D00E9462
:10532000742907FC05D03EF4909581959F4F089510
:10533000709561957F4F0895A1E21A2EAA1BBB1BA1
:10534000FD010DC0AA1FBB1FEE1FFF1FA217B30751
:10535000E407F50720F0A21BB30BE40BF50B661F67
:10536000771F881F991F1A9469F76095709580952B
:1053700090959B01AC01BD01CF010895EE0FFF1F79
:105380000590F491E02D09940E94CC29332312F466
:105390008A1B9B0B0C94DD29A29FB001B39FC00117
:1053A000A39F700D811D1124911DB29F700D811D51
:1053B0001124911D08950E94CC29B7FF0895821BE6
:1053C000930B08950E94CC29A59F900DB49F900D3A
:1053D000A49F800D911D11240895B7FF0C94E2291C
:1053E0000E94E229821B930B0895991B79E004C067
:1053F000991F961708F0961B881F7A95C9F7809514
:105400000895FC014150504030F001900616D1F74C
:105410003197CF010895882799270895FB01DC0172
:1054200004C08D910190801921F441505040C8F77B
:10543000881B990B0895F999FECF92BD81BDF89A0A
:10544000992780B50895A6E1B0E044E050E00C94BF
:10545000552AA8E1B0E042E050E00C94552A262FEE
:10546000F999FECF92BD81BDF89A019700B402165A
:1054700039F01FBA20BD0FB6F894FA9AF99A0FBE08
:1054800008950396272F0E94302A0E942F2A252F45
:105490000E94302A242F0C94302A0196272F0E9434
:1054A000302A0C942F2ADC01CB01FC01F999FECFA4
:1054B00006C0F2BDE1BDF89A319600B40D9241509C
:0A54C0005040B8F70895F894FFCFAC
:1054CA0032022808641E140A321E010102000E006C
:1054DA000E0E01191A1B1C1D1E1F202122A022F5C7
:1054EA0022D622D222CE2201E200E900EA00B50049
:1054FA00B600B700CD008301CC008A019201940165
:10550A002102230224022502260227022A02B300CC
:10551A00B4006F007000818283E200E900EA00B5FE
:10552A0000B600B700CD008301CC008A0192019435
:10553A00012102230224022502260227022A02B39B
:10554A0000B4006F007000818283F7663192C6331F
:10555A0097F49190F594F63435323600010202023E
:10556A00020606060909090909090F0F0F0F0F0F8D
:10557A001515151819191919191919191919232489
:00000001FF
