:100000000C94E5030C942C040C942C040C942C04F8
:100010000C942C040C942C040C942C040C942C04A0
:100020000C942C040C942C040C945F2B0C94312C09
:100030000C94CF250C942C040C942C040C942C04BC
:100040000C942C040C942C040C942C040C942C0470
:100050000C942C040C9428260C942C040C942C0442
:100060000C942C040C942C040C942C040C942C0450
:100070000C942C040C942C040C942C040C942C0440
:100080000C942C040C942C040C942C040C942C0430
:100090000C942C040C942C040C942C040C942C0420
:1000A0000C942C040C942C040C942C04C507C50748
:1000B000F707F70744086208560956096D08D5087E
:1000C000E608E6084609560956094F09F609F609F1
:1000D000080A080AFF09080A080A080AF609F609C0
:1000E000040A080A080A040A07200A202A203B20DA
:1000F00043204E205120542057209D209D205A20DF
:100100005D2062206F207C207F20832090209E2C09
:10011000C52CBD2DC52CBD2D112D342DBD2D8B2DE8
:100120009A2D29001E0020002200240026002D0008
:1001300035001F0021002300250027002E00490064
:10014000140008001700180012002F002B001A00DE
:1001500015001C000C00130030004C0004000700C8
:100160000A000D000F002A003900160009000B00DC
:100170000E0033003100E1001B00190005001000E3
:10018000370034001D00060005001100360038005D
:100190002800E00000002C002C00E4005100E500E5
:1001A0000000E2000151E60050004F005200005CE8
:1001B0003A003C003E0040004200440001003B0089
:1001C0003D003F004100430045000100C25CC55CAA
:1001D00001000100010001000100C65C01000100F6
:1001E0000100010001000100C35CC75C01000100C7
:1001F000010001000100C85C0100010001000100D4
:1002000001000100CA5C01000100010001000100C1
:10021000C45CC95C01000100010001000100010093
:1002200000000100010001004E000100000001007B
:10023000010001004A004D004B00010001000100D7
:1002400001000100010001000100010001000100A6
:100250000100010001000100010001000100010096
:100260000100010001000100010001000100010086
:100270000100010001000100010001000100010076
:100280000100010001000100010001000100010066
:100290000100010001000100010001000100010056
:1002A0000100010001000100010001000000010047
:1002B0000100010001000100000001000100010037
:1002C0000100010001000100010001000100010026
:1002D0000100010001000100010001000100010016
:1002E0000100010001000100010001000100010006
:1002F00001000100010001000100010001000100F6
:1003000001000100010001000100010001000100E5
:1003100001000100010001000100010001000100D5
:1003200001000100010001000100010001000100C5
:1003300001000100010001000000010001000100B6
:1003400001000100000001000100010001000100A6
:10035000010000000000000000002A2B280000001F
:100360000000000000000000000000000029000064
:1003700000002C1E3420212224342627252E362D41
:100380003738271E1F202122232425263333362EDB
:1003900037381F0405060708090A0B0C0D0E0F104D
:1003A0001112131415161718191A1B1C1D2F313092
:1003B000232D350405060708090A0B0C0D0E0F1036
:1003C0001112131415161718191A1B1C1D2F313072
:1003D000354C00000000000000000000000000009C
:1003E000000000000000000000000000000000000D
:1003F0000000000000007E0F00D4FFFFFFC70000D8
:10040000007800047F3F1F643214643214783C1E6D
:100410001E140A052223252628292A2C2D2F3032A6
:10042000333536383A3B3D3E4042434547494A4CD6
:100430004E5051535557595A5C5E60626466686904
:100440006B6D6F71737577797B7D7F81838587890C
:100450008A8C8E90929496989A9C9E9FA1A3A5A711
:10046000A8AAACAEAFB1B3B4B6B8B9BBBCBEBFC13D
:10047000C2C3C5C6C7C9CACBCCCDCED0D1D2D2D3C8
:10048000D4D5D6D7D7D8D9D9DADADBDBDBDCDCDCDC
:10049000DCDCDDDDDDDDDCDCDCDCDCDBDBDBDADA9F
:1004A000D9D9D8D7D7D6D5D4D3D2D2D1D0CECDCC16
:1004B000CBCAC9C7C6C5C3C2C1BFBEBCBBB9B8B62B
:1004C000B4B3B1AFAEACAAA8A7A5A3A19F9E9C9AB6
:1004D00098969492908E8C8A89878583817F7D7B84
:1004E00079777573716F6D6B6968666462605E5C65
:1004F0005A5957555351504E4C4A4947454342402B
:100500003E3D3B3A3836353332302F2D2C2A2928C0
:1005100026252322FFAA7F55400001010101010188
:1005200001010102020202020202020203030303AA
:10053000030303030404040404040405050505057A
:100540000606060606070707070708080808090938
:1005500009090A0A0A0B0B0B0C0C0C0D0D0D0E0EE3
:100560000E0F0F0F10101111111212131314141576
:100570001516161717181819191A1A1B1B1C1D1DEA
:100580001E1E1F2020212222232424252626272840
:1005900029292A2B2C2D2D2E2F3031323233343570
:1005A000363738393A3B3C3D3E3F40414243444573
:1005B000464748494A4C4D4E4F5051535455565852
:1005C000595A5B5D5E5F616264656668696B6C6DFC
:1005D0006F7072737577787A7B7D7E808283858772
:1005E000888A8C8E8F91939596989A9C9EA0A2A3B0
:1005F000A5A7A9ABADAFB1B3B5B7BABCBEC0C2C4B5
:10060000C6C9CBCDCFD1D4D6D8DBDDDFE2E4E7E974
:10061000EBEEF0F3F5F8FAFDFF100343006800611C
:10062000006C00690063006500000014034300755E
:1006300000730074006F006D004B00420044000026
:10064000000403090409025B00030100A0FA090485
:1006500000000103010100092111010001224000F5
:100660000705810308000A090401000203000000D5
:100670000921110100012222000705820320000147
:100680000705030320000109040200010300000024
:1006900009211101000122B6000705840320000A88
:1006A00012010002000000086A6A0C000100010249
:1006B00000010660FF0961A1010962150026FF0023
:1006C0009520750881020963150026FF00952075A5
:1006D000089102C005010902A10185020901A100DA
:1006E00005091901290815002501950875018102E0
:1006F0000501093009311581257F950275088106AC
:1007000009381581257F950175088106050C0A3881
:10071000021581257F950175088106C0C005010974
:1007200080A101850319012AB700150126B700959C
:100730000175108100C0050C0901A1018504190192
:100740002AA002150126A002950175108100C0059E
:10075000010906A1018505050719E029E71500250E
:10076000019508750181020507190029EF1500257B
:100770000195F07501810205081901290595057596
:10078000019102950175039101C005010906A101BE
:10079000050719E029E71500250195087501810273
:1007A0009501750881010507190029FF150026FF2D
:1007B000009506750881000508190129059505753C
:1007C000019102950175039101C011241FBECFEF65
:1007D000DAE0DEBFCDBF04B603FE27C0809105037B
:1007E00090910603A0910703B09108038730904BC6
:1007F000A740B04BD1F4109205031092060310925B
:1008000007031092080314BE84B7877F84BF0FB616
:10081000F894A895809160008861809360001092A0
:1008200060000FBEE0E0F8E3099511E0A0E0B1E060
:10083000EEEEFDE502C005900D92A03DB107D9F79F
:1008400023E0A0EDB1E001C01D92A530B207E1F7B1
:100850000E94DF140C94F52E0C94000081E00895A2
:1008600081E008950C94300408950C9434041F938F
:10087000CF93DF9300D000D01F92CDB7DEB749836E
:100880005A836B833091D20189819A81311114C0CE
:10089000662359F0222349F00E94EC0A182F682F92
:1008A00089819A810E94950A03C00E94C00A182F6C
:1008B00069817A81812F04C00E94EC0A69817A8162
:1008C0000F900F900F900F900F90DF91CF911F918D
:1008D0000C946F21FC01262F40815181628173812C
:1008E00084810C94370481E00895CF93DF93EC0169
:1008F00060E00E946A04BE01DF91CF910C94350440
:10090000E1E0F0E0DF0102C0AA0FBB1F6A95E2F749
:10091000BD01DF0102C0AA0FBB1F4A95E2F7AD017E
:10092000462B01C0EE0F2A95EAF7942F982349131E
:1009300002C08E2B0895E0958E230895242F462F14
:10094000682F8091EE010E9480040C94520A0E944C
:1009500079130E94F8050C94A9130C94A51308951B
:100960000E94E4090E94AF042FEF84E39CE0215031
:1009700080409040E1F700C000000C944E260F9399
:100980001F93CF93DF938C0161E00E946A04EC0116
:10099000B8010E945F1F882309F44BC0B801CE0143
:1009A0000E943204882309F444C0B801CE010E9499
:1009B000A4228823F1F1B801CE010E94F6228823F7
:1009C000C1F1B801CE010E942124882391F1B80120
:1009D000CE010E940B1E882361F1F80182818823D9
:1009E00009F1CA358DE5D807C1F050F4C115FCE511
:1009F000DF0781F0CE3DDC45A9F40E94711019C0DB
:100A0000CB35EDE5DE0761F0CC35DD4559F40E94CC
:100A1000F60E08C00E94B0040CC00E94FF0E02C077
:100A20000E94020FC801DF91CF911F910F910C948A
:100A30002E0480E0DF91CF911F910F910895DF92F6
:100A4000EF92FF920F931F93CF93DF93E82FF0E085
:100A5000EE5AFC4FD490282F26952695269530E007
:100A6000F901EE50FC4F0491877010E0082E02C08F
:100A7000159507950A94E2F701701127F901EE51D7
:100A8000FC4FE490F12C082E02C0F594E7940A94F0
:100A9000E2F791E0E922FF24F901EE52FC4FC49104
:100AA000D0E002C0D595C7958A95E2F7C170DD27E1
:100AB0000115110519F081EE0E945206E114F104AE
:100AC00019F086EE0E9452068D2D0E947B07EF28BA
:100AD00019F086EE0E94FC06012B19F081EE0E94AF
:100AE000FC06CD2B51F08CE2DF91CF911F910F913D
:100AF000FF90EF90DF900C947B07DF91CF911F91D7
:100B00000F91FF90EF90DF900895EF92FF920F9377
:100B10001F93CF93DF93EC01162F0AE0888188237F
:100B200009F455C0813009F043C08981813041F416
:100B30007E0182E0E80EF11C8A810E947B0709C0D9
:100B4000823049F47E01E2E0EE0EF11C8A810E94BF
:100B50005206E7012FC0833041F47E01F2E0EF0E30
:100B6000F11C8A810E94FC06F4CF843011F021969A
:100B700021C02A81229680E090E030E020533109A4
:100B80002A30310558F4089FA001099F500D112407
:100B9000C901840F951F21962881EFCF009751F04E
:100BA000EFE9FFE03197F1F700C000000197F6CFC1
:100BB0000E941F052196812F882309F4AFCFEFE90A
:100BC000FFE03197F1F700C000008150F5CFDF91D1
:100BD000CF911F910F91FF90EF90089560E00C94DA
:100BE000850508950C94F10581E008950C94F405B1
:100BF0000895CF93C82F0E94F2058C2F0E94F6050E
:100C0000CF910895CF93DF93CDB7DEB72B970FB673
:100C1000F894DEBF0FBECDBF4F83588769877A87B0
:100C20008B8761110E94250F9E012F5F3F4F86E049
:100C3000F90111928A95E9F785E0FE013796D9010D
:100C400001900D928A95E1F789819A814C815D81AD
:100C5000452B31F09F3F31F491E08F3F19F403C0F1
:100C600091E001C090E090FF09C049815A816B81F9
:100C70007C818D819E810E94250E05C0C9010E9444
:100C800073048111F2CF2B960FB6F894DEBF0FBE1E
:100C9000CDBFDF91CF910895FC01808191810E94A9
:100CA000190B0895CF93882309F4A4C0C82F823864
:100CB000C1F40E94572481FD9DC069E38091000129
:100CC000909101010E944D250E94570F2FEF81EE58
:100CD00094E0215080409040E1F700C0000069E3BB
:100CE00019C0833801F50E94572480FD83C063E555
:100CF00080910001909101010E944D250E94570FA3
:100D00002FEF81EE94E0215080409040E1F700C049
:100D1000000063E580910001909101010E94582537
:100D2000CF910C94570F8438C1F40E94572482FD50
:100D300061C067E480910001909101010E944D25FE
:100D40000E94570F2FEF81EE94E021508040904099
:100D5000E1F700C0000067E4DDCF8CEF8C0F813A33
:100D6000D0F46C2F80910001909101010E94CD245C
:100D7000882349F06C2F80910001909101010E941D
:100D800058250E94570F6C2F80910001909101010E
:100D90000E944D25C5CF80E28C0F883048F4C77083
:100DA00081E001C0880FCA95EAF70E94080FB8CF0A
:100DB000EBE5EC0FE33040F4F0E0EA5AFE4F8081BF
:100DC00090E0CF910C948B24E8E5EC0FE73150F4E0
:100DD000F0E0EE0FFF1FE85DFE4F80819181CF9123
:100DE0000C94A124C03F30F08C2F0E946C15CF9141
:100DF0000C943E16CF910895882309F464C082387C
:100E000079F40E94572481FF5EC069E3809100015C
:100E1000909101010E944D250E94570F69E310C077
:100E20008338B1F40E94572480FF4DC063E5809160
:100E30000001909101010E944D250E94570F63E52A
:100E400080910001909101010E9458250C94570F48
:100E5000843879F40E94572482FF35C067E480917A
:100E60000001909101010E944D250E94570F67E4F7
:100E7000E7CF9CEF980F913A10F4682FE1CF90E202
:100E8000980F983050F4877091E001C0990F8A95BF
:100E9000EAF7892F0E940E0FD9CF9BE5980F933068
:100EA00020F480E090E00C948B2498E5980F973123
:100EB00020F480E090E00C94A124803F20F00E9478
:100EC000C7150C943E1608951F93CF93DF93182FE8
:100ED000EB010E945206209741F08FE99FE00197B5
:100EE000F1F700C000002197F6CF812FDF91CF915D
:100EF0001F910C94FC06893319F060E070E002C089
:100F000060E570E00C946407882321F00E94080FCC
:100F10000C94570F0895882321F00E940E0F0C9413
:100F2000570F0895CF92DF92EF92FF920F931F9386
:100F3000CF93DF937C01062FC72FFC01D28115814F
:100F400012951F700E94DD0E882399F0DD2389F031
:100F50008C2F807F803421F080E2800F883048F031
:100F600082E00E94A70F0E94DD0E91E0D82ED926C4
:100F700001C0D12CCC2EC2948FE0C8228C2D90E0E1
:100F8000FC01EA5AFF4F0C94492E8C2F807FCF70C2
:100F9000882311F0C295C07FDD2399F0CC2309F49A
:100FA00060C180E2800F883010F0011104C08C2FE6
:100FB0000E94080F03C08C2F0E94180F0E94570F29
:100FC00050C1802F0E94FC06CC2309F46FC180E23F
:100FD000800F883010F0011104C08C2F0E940E0F7A
:100FE00003C08C2F0E941E0F0E94570F5FC18C2FD1
:100FF000807FCF70803211F0C295C07F002319F03E
:101000000130C9F022C0DD2371F0112341F011300D
:1010100031F40E94380F8C2B0E94400F47C10E9470
:10102000380F8C2B1DC0112319F0113009F43EC16B
:101030000E944D0F25C0DD2321F0163008F036C187
:101040000EC0153008F032C11BC0DD2361F0112342
:1010500031F0F701858180FF04C18F7085838C2F6B
:101060000E94840723C1112359F0093309F00AC1F2
:10107000FFEF27EE83E0F15020408040E1F700C110
:101080008C2F0E948B0712C18C2F869586958370BA
:1010900019F0813061F00AC1DD2321F0802F9C2FEF
:1010A000937002C080E090E00E948B2407C1DD2392
:1010B00021F0802F9C2F937002C080E090E00E946E
:1010C000A124FCC0802FDD2319F00E946C1502C002
:1010D0000E94C7150E943E16F1C08C2F837079F5CF
:1010E000D111E8C0402F429546954770440F440FF8
:1010F000202F2F70042E01C0220F0A94EAF704FF5C
:1011000008C08FE090E001C0880F4A95EAF780950B
:1011100001C080E0C695C695C370822BC23049F0ED
:1011200058F4C13019F00E94460AC4C00E94410A16
:10113000C1C00E944B0ABEC00E943F0ABBC0DD2353
:1011400019F08C2F817001C08695882309F4B2C0F4
:10115000402F429546954770440F440F202F2F7023
:10116000042E01C0220F0A94EAF704FF08C08FE0A2
:1011700090E001C0880F4A95EAF7809501C080E0B1
:10118000C695C695C370822BC23049F058F4C13061
:1011900019F00E948A0A8EC00E94850A8BC00E94A4
:1011A0008F0A88C00E94520A85C0CF70DD2339F0B3
:1011B0008C2F0E94630A802F0E9484077BC0802F9F
:1011C0000E948B078C2F0E946E0A74C0023F01F1AF
:1011D00028F4003F41F0013FA1F03FC0033FF9F088
:1011E000043F39F13AC0DD2341F0153008F05EC00C
:1011F0008C2F8F710E947A0A59C0163008F056C0A1
:10120000F7CFDD2339F08C2F8F710E94630A4EC017
:10121000DD23C9F38C2F8F710E946E0A47C0DD2336
:1012200029F08C2F8F710E945B0A40C00E94580ADF
:101230003DC0DD2349F0CF718C2F0E94630A63E02B
:101240008C2F0E948C0F32C081E00E94A70F1230B9
:1012500068F182E00E94A70F29C0DD2331F011233D
:1012600091F2802F0E94520621C0112399F2093376
:1012700049F49FEFE7EEF3E09150E040F040E1F7F2
:1012800000C00000802F0E94FC0610C04C2F4F7041
:10129000602FC7010E945B110E94470B0FC04C2FAB
:1012A0004F70602FC7010E945E1108C088EF8C0D3F
:1012B000843020F40E9457240E94F905DD20C9F0F3
:1012C0000E94D90E80FD15C0F70112820E94D30E34
:1012D0000E94630AC7010E949A090E94D30EDF91FF
:1012E000CF911F910F91FF90EF90DF90CF900C94D2
:1012F0006E0ADF91CF911F910F91FF90EF90DF90D9
:10130000CF9008950F931F93CF93DF93EC016881E3
:1013100079818A810E94240B8C010E94940A0E9488
:10132000330AB801CE010E949207DF91CF911F913D
:101330000F910895CF93DF93EC01988189812B81E0
:101340003C81232B31F08F3F31F481E09F3F19F432
:1013500003C081E001C080E080FD19C0CE010E9481
:10136000BF0481110CC00E94DD0E882381F08A81A8
:10137000882369F082E0DF91CF910C94A70FCE0112
:101380000E948209CE01DF91CF910C947504DF9108
:10139000CF91089580E090E00E948B2480E090E05F
:1013A0000E94A1240E94250F0E94350F0E94570F12
:1013B0000E946F170C943E168091000190910101DC
:1013C0000E9463250C94CA090E94150F0C94DC0935
:1013D000E92FE295EF704E2F50E0FA013297EE3090
:1013E000F105B0F4EA59FF4F0C94492E803F91F07B
:1013F00018F4883E68F40EC0843F51F40BC0883E58
:1014000048F0813F29F406C093FB882780F90895AE
:1014100080E0089581E00895FC01808191810E941F
:10142000190B0E94E8090895CF93DF9300D000D0F4
:101430001F92CDB7DEB70F900F900F900F900F90C7
:10144000DF91CF910895CF93DF9300D000D000D0EB
:10145000CDB7DEB726960FB6F894DEBF0FBECDBF70
:10146000DF91CF910895089508950C94340A0C9457
:10147000350A0E94370A8093EF010C94CA090C9434
:10148000390A9091EF01892B0C94390A9091EF0160
:1014900089230C94390A9091EF0189270C94390A19
:1014A0000C94340A0E94500A8093EE010C94CA09ED
:1014B00080E00C94520A91E001C0990F8A95EAF7F6
:1014C000892F0C94520A21E030E001C0220F8A9546
:1014D000EAF78091EE01822B0C94520A21E030E071
:1014E00001C0220F8A95EAF720958091EE018223B0
:1014F0000C94520A21E030E001C0220F8A95EAF7ED
:101500008091EE0182270C94520A9091EE01892B72
:101510000C94520A9091EE0189230C94520A9091F6
:10152000EE0189270C94520A089527E0929F800DBE
:101530001124E82FE695E695E695877051E001C005
:10154000550F8A95EAF783E0E89FF0011124ED52E8
:10155000FE4F20E030E070E04081CB01022E02C05F
:10156000969587950A94E2F7817081958427852363
:10157000842781932F5F3F4F2330310569F708950A
:1015800027E0929F800D1124682F669566956695D9
:10159000982F977083E0689FB001112440E050E0DD
:1015A00080E0FB01E40FF51FED52FE4F208130E09B
:1015B000092E02C0369527950A94E2F72170332749
:1015C000042E01C0220F0A94EAF7822B4F5F5F4F6F
:1015D0004330510531F70895CF92DF92FF920F9378
:1015E0001F93CF93DF936C010091EE018091EF0187
:1015F000082BC7E0D0E010E0C8010C2E02C0959582
:1016000087950A94E2F780FD04C02197A8F7F12C92
:1016100007C0FC2EB6018C2F0E9483120197A9F3FC
:101620008F2DDF91CF911F910F91FF90DF90CF9081
:101630000895CF93DF93EC010E94EC0ABE010E9453
:101640008312DF91CF9108951F93CF93DF93EB0126
:101650009091D201992321F0CB010E94190B13C064
:10166000882349F0CB010E94EC0A182F682FCE0185
:101670000E94950A04C0CB010E94C00A182FBE0127
:10168000812F0E948312DF91CF911F910895EF92D5
:10169000FF920F931F93CF93DF938C01892B09F453
:1016A0006CC0F12CEE24E394E8012196F8018491BA
:1016B000843740F4843008F051C0813081F08230AA
:1016C00019F15BC0853709F444C0A8F19CE7980F75
:1016D000903708F052C08F770E94FC0641C00E5F21
:1016E0001F4FFE01849190E2980F983050F487705C
:1016F000FE2D01C0FF0F8A95EAF78F2F0E94280F59
:1017000014C00E9452062DC00E5F1F4FFE0184912F
:1017100090E2980F983060F48770FE2D01C0FF0FA3
:101720008A95EAF78F2F0E942E0F0E94570F19C03B
:101730000E94FC0616C00E5F1F4FFE01C491CC2311
:1017400081F08FE99FE00197F1F700C00000C150E0
:10175000F6CF0E5F1F4FFE01F49003C00E945206A9
:101760008E018F2D882309F49FCFEFE9FFE0319799
:10177000F1F700C000008150F5CFDF91CF911F91AC
:101780000F91FF90EF9008951F93CF93DF93C09137
:10179000F00116E08091F101C81799F0D0E01C9F8C
:1017A000F0011D9FF00D1124EE50FE4F408151813C
:1017B00062817381848195810E94230A2196C7707A
:1017C000E9CFDF91CF911F9108954091220250916E
:1017D000230260912402709125028091260290914B
:1017E00027020C94230A0F931F93CF93DF938091CA
:1017F000270282958F7009F05DC0809124028823B2
:1018000009F458C08091F0011091F1016091220219
:1018100070912302C0912502D091260291E06F3F82
:1018200009F090E0292F06E0811709F443C02097C2
:1018300021F07F3F21F030E003C031E001C0322FC2
:1018400090E030FD34C0089FF001099FF00D112495
:10185000DF01AE50BE4F11963C911197371327C050
:101860003C91361324C012963C91129731111FC03F
:1018700013964D915C9114974C1B5D0B483C5105A0
:10188000B0F4809127028F70806180932702E95025
:10189000FE4F80818F708061808382E292E00E949F
:1018A0009A09DF91CF911F910F910C94C40B01966F
:1018B0008770BACFDF91CF911F910F9108959F92BA
:1018C000AF92BF92CF92DF92EF92FF920F931F934E
:1018D000CF93DF93CDB7DEB761970FB6F894DEBF35
:1018E0000FBECDBF8C0185E0F801DE011D96019091
:1018F0000D928A95E1F7F801E280909122026091C1
:10190000230220912502309126022115310531F064
:101910006F3F31F481E09F3F19F403C081E001C0C3
:1019200080E0F82FF1709F2E80FD3FC1F8014081CB
:101930005181A380B48082E2C82E82E0D82EF0903C
:101940002402F501E21BF30BFF2009F4D9C08091BA
:101950002702E83CF10508F095C0282F207F09F008
:1019600052C0561313C0491311C0FE2CE1100EC013
:101970008F708061809327020E94E50BC6010E9450
:101980009A0980912702F80185834CC1AB2831F078
:101990005F3F31F481E04F3F19F403C081E001C0A3
:1019A00080E080FD03C081E08E2502C080E090E0F1
:1019B000F82FF170FF2E80FF1CC08091F001209164
:1019C000F10136E0821709F40BC190E0389FF00175
:1019D000399FF00D1124EE50FE4F6181561306C061
:1019E0006081461303C06281E61203C001968770CE
:1019F000E9CFFE2CEE2009F415C180912702816009
:101A00008093270254C0561306C0491304C0E11046
:101A100002C0F80199C0C8010E940C0A882361F134
:101A2000EE2051F120912702822F82958F7090E055
:101A3000029774F0809122029091230298878F83FD
:101A40001986BB86AA862C87CE0107960E949A0922
:101A500086E0F801A2E2B2E001900D928A95E1F7EA
:101A60000E94F30B0E94E50B0AC0561711F1C80142
:101A70000E940C0A81112CC0C8010E949A09FF24FF
:101A8000F394D0C0282F207F81F77A2DB98AA88AB5
:101A90006E2D89890E94140A82E292E00E949A09BE
:101AA00086E0F60111928A95E9F70E94E50BF12C88
:101AB000B9C04913DCCFE110DACFF8018583C80142
:101AC0000E949A0986E0F60111928A95E9F7AAC068
:101AD000EE2091F220912702822F82958F7090E064
:101AE00002970CF4B5CF80912202909123029A8341
:101AF00089831B82BD82AC822E83CE010196A6CF44
:101B0000E83CF10508F044C0FE2CEE2009F4B4CF07
:101B1000561330C049132EC02091270220FD21C04A
:101B2000822F82958F70482F50E041155105C9F0E2
:101B3000F80125834F30510541F08F5F982F929522
:101B4000907F822F8F70892B8583C8010E949A090C
:101B500086E0F801A2E2B2E001900D928A95E1F7E9
:101B60003CC086E0F801A2E2B2E001900D928A95B5
:101B7000E1F758C0C8010E940C0A811169CF809119
:101B80002702816080932702C8010E949A094AC0F7
:101B90007A2DB98AA88A6E2D89890E94140A86E056
:101BA000F60111928A95E9F718C0EE2009F464CF86
:101BB000C8010E940C0AF82E882309F45DCF86E044
:101BC000F801A2E2B2E001900D928A95E1F782E27B
:101BD00092E00E944C060E94F30B0E94E50B22C08B
:101BE0004D875E878D859E850E94190B292F229532
:101BF0002F70223028F49F7039F0811105C00BC07E
:101C0000243028F49F7049F4805E883020F0C801A9
:101C10000E949A099F2CF92C05C0F8019581907FAC
:101C200099F7F9CF8F2D61960FB6F894DEBF0FBEEE
:101C3000CDBFDF91CF911F910F91FF90EF90DF907B
:101C4000CF90BF90AF909F9008951F93CF93DF9355
:101C5000CDB7DEB72C970FB6F894DEBF0FBECDBF61
:101C60004F83588769877A878B879C87CE01079631
:101C70000E945F0C8823D1F09F8188852A853B854F
:101C8000232B31F08F3F31F481E09F3F19F403C0E3
:101C900081E001C080E080FD47C04F8158856985A3
:101CA0007A858B859C850E94230A3EC086E0FE01D2
:101CB0003796DE01119601900D928A95E1F7FF812A
:101CC000E8856A857B856115710531F0EF3F31F458
:101CD00081E0FF3F19F403C081E001C080E080FD96
:101CE00023C02091F10130E0C90101968770992746
:101CF0004091F00150E084179507F1F1F983EA83F0
:101D00007D836C8396E0929FD001939FB00D112448
:101D1000AE50BE4FFE01319601900D929A95E1F7BB
:101D20008093F1010E94C40B16E08091F001909124
:101D3000F101891771F1189FC00111248E509E4F37
:101D40000E945F0C882329F1E091F0011E9FF001B1
:101D50001124EE50FE4F4081518162817381848154
:101D600095810E94230A8091F00190E0019687708E
:101D700099278093F001D9CF0E94E4091092F101D4
:101D80001092F001E2E2F2E086E0DF011D928A9516
:101D9000E9F72C960FB6F894DEBF0FBECDBFDF91EA
:101DA000CF911F91089580912802859585958595FD
:101DB0000895809128028770089590912802977065
:101DC00081E009F480E008959091B00292FB22270F
:101DD00020F9281751F080FB92F99093B00280917E
:101DE000AF029091B0020C94EE0F08958091B00272
:101DF00082FB882780F991E089270C94E40E81E02A
:101E00000C94E40E80E00C94E40E80914C02089552
:101E100090914C02892B80934C020895809590916B
:101E20004C02892380934C02089510924C0208952D
:101E300090914B02892B80934B020895809590914D
:101E40004B02892380934B02089510924B02089510
:101E500090914A02892B80934A020895809590912F
:101E60004A02892380934A02089510924A020895F3
:101E700080912902089508950C943B0F0C943C0F17
:101E80009091B00292FD08C090912902981721F01C
:101E9000809329020C943E0F089580912902882393
:101EA00029F01092290280E00C943E0F0895E091F1
:101EB0000001F091010180914C028083E0910001CA
:101EC000F0910101908180914B02892B8083E091F8
:101ED0000001F0910101908180914A02892B808359
:101EE00080912902882381F0E0910001F0910101A5
:101EF0009081892B808380910001909101010E9443
:101F0000B72481110E944D0F809100019091010131
:101F10000C9463240C943B0F9091B00292FD10C07E
:101F200098E0899F90011124262B209328020E947B
:101F3000630A809128028595859585950C948A0F72
:101F40000C94630A1092280280E00C948A0F20916E
:101F500028028095822380932802982F977041F45D
:101F600030E0482F082E000C550B2417350721F4BC
:101F70009091B00292FF07C08595859585950E9446
:101F80006E0A0C94A20F08956FEF7FEF80E090E04F
:101F90000C94DF2E80E090E00E94BB2E893E9E4F85
:101FA00011F40C94021F80E0089582E090E00C94FC
:101FB000AD2E83E090E00C94AD2ECF9384E090E0C2
:101FC0000E94AD2EC82F82E290E00E94AD2E2C2FF1
:101FD00030E0A901582BCA01CF910895CF93C92FA2
:101FE000682F84E090E00E94C12E6C2F82E290E086
:101FF000CF910C94C12EAB01BC018FE090E00C940A
:10200000D32EAB01BC0183E190E00C94D32E60E0B1
:1020100070E0CB010C94011060E070E0CB010E94F5
:10202000FB0F0C94071069EE7EEF80E090E00E94B9
:10203000DF2E60E082E090E00E94C12E60E083E04D
:1020400090E00E94C12E1092EF0160E084E090E0E9
:102050000E94C12E60E082E290E00E94C12E60E00A
:1020600085E090E00E94C12E60E086E090E00E9452
:10207000C12E6FEF87E090E00E94C12E40E050E05B
:10208000BA0188E090E00E94D32E60E08DE090E0FD
:102090000E94C12E40E050E0BA0188E190E00E9429
:1020A000D32E60E087E190E00E94C12E40E050E036
:1020B000BA018CE190E00E94D32E60E070E080E2F3
:1020C00090E00E94DF2E40E050E0BA0188E190E00D
:1020D0000E94D32E80E00E941B1F0E94471F0C9479
:1020E0000C100C941310682F8EE090E00C94C12E0D
:1020F0000E940D2660935C0270935D0280935E02E5
:1021000090935F02609358027093590280935A0231
:1021100090935B02089585B7806885BF85B7806816
:1021200085BF089581E008950C94921008950C9451
:1021300096100C9496100C9499100C9496100C9484
:102140009D100C9496100E948B108FE593E10E94D5
:1021500072260E94A1100C949F100E9497100C945C
:1021600096100E94F8250E94561F0E944C140E944F
:10217000191D0C949B109F92AF92BF92CF92DF9249
:10218000EF92FF920F931F93CF93DF93CDB7DEB7FC
:102190002A970FB6F894DEBF0FBECDBF0E945D1424
:1021A00081110E9478108EE4A82E82E0B82E00E003
:1021B00010E0902E802F0E949313D82EF501C1902D
:1021C0005F01C826B1F40F5F1F4F0A30110589F770
:1021D0008FEF89838A831B820E9401268160782F7A
:1021E0009D838C8349815A816B818D810E94020677
:1021F0002FC08091600281FD0E949913E12CFF2481
:10220000F3948C2D8F21F1F00E949410882399F083
:10221000EE829F82DF2081E009F480E088870E94BF
:1022200001268160782F9A8789874E815F81688532
:102230008A850E940206F801E25BFD4F8081F82644
:10224000F08206C0E394FF0CF7E0EF12DACFBBCFC9
:102250000E945D1D0E945C160E94572490914D02C1
:102260008917B9F00E94572480934D022A960FB621
:10227000F894DEBF0FBECDBFDF91CF911F910F91BC
:10228000FF90EF90DF90CF90BF90AF909F900C9415
:10229000F9052A960FB6F894DEBF0FBECDBFDF91C9
:1022A000CF911F910F91FF90EF90DF90CF90BF9053
:1022B000AF909F90089580E090E008950895880F72
:1022C000991FFC01EE5FFB4F859194910895CF9388
:1022D000DF930E948812EC01811520E5920708F037
:1022E0003FC0811540E4940708F0D2C0883E9105B4
:1022F00000F5803E910508F002C1883A910570F41E
:10230000853A910508F0A6C08130910509F49FC077
:1023100008F4F2C0049708F0F2C0EEC08F3B9105BC
:1023200008F4A1C0803C910508F4E6C0805C9109E6
:10233000A5C0811550E2950760F4C11581E0D8076A
:1023400008F0DDC0C03FD10508F4D6C0CE019065CD
:10235000D7C0811520E3920708F093C09F708EC00C
:10236000811545E5940708F046C0811554E59507A9
:1023700008F0A6C0C11582E5D80718F5C11521E5FA
:10238000D20708F088C0CE01F4E096958795FA95BB
:10239000E1F7282F23703C2F337081E090E002C0DA
:1023A000880F991F3A95E2F79C68922B2C2F2F707B
:1023B0002695269540E2249F90011124822B932B91
:1023C0009FC09E01237033279C2F96959695C1152B
:1023D000D34508F065C041E050E002C0440F551FEE
:1023E0002A95E2F780E2989F90011124CA01822B7E
:1023F000932B9C6885C0811559E5950798F4C11504
:1024000088E5D80708F061C0C11526E5D20708F0B5
:1024100073C08C2F0E941C138F7190E0982F882717
:1024200090626EC081154AE5940708F453C0905637
:102430008115904208F060C08D2F8F710E941C138F
:102440009E01332730628F71A901582B53C081E060
:1024500090E056C0855AC82FD0E0C957DE4F88811A
:1024600090E090644DC0885AC82FD0E0CC0FDD1F9B
:10247000C75ADE4F88819981946442C00E945F11DF
:102480003FC09927D3FF02C0986C3AC0906C38C007
:102490009F70906A35C09C2F8827816F906A30C0EA
:1024A00041E050E002C0440F551F2A95E2F780E258
:1024B000989F90011124CA01822B932B9A6820C007
:1024C000982F8827846F906A1BC09C2F8827806F65
:1024D000906A16C08F700E941C139E0194E036957E
:1024E00027959A95E1F72F7030E0322F2227306937
:1024F000A901482BCA0104C080E090E001C0CE01D0
:10250000DF91CF9108950E946F210E946711089575
:102510008238910569F1B0F48133910509F46DC0F9
:1025200048F48932910509F463C08A32910509F4AF
:1025300069C008958533910509F455C08933910523
:10254000B9F00895833E910569F138F4803E910514
:10255000B1F0823E910509F10895863E9105A9F1F9
:10256000873E9105B9F1843E910509F064C023C00E
:102570002091AF0220FD4FC021FD4DC008958091F4
:10258000AF0280FD44C08091B00280FF44C08091C2
:10259000AF0284FD42C083EE4DC08091AF0282FF46
:1025A00038C0F5CF8091AF0282FD33C08091B00278
:1025B00080FD31C0ECCF8091B00281FF32C08091AC
:1025C000AF0284FD2AC087EE35C08091AF0283FF41
:1025D00026C0F5CF8091AF0283FD21C08091B0026B
:1025E00081FD1FC0ECCF8091AF0285FD1CC01DC0D6
:1025F0008091AF0285FD19C016C08091AF0286FDA3
:1026000016C017C08091AF0286FD13C010C089E3C9
:1026100011C082EE0FC080EE0DC080E00BC086EED0
:1026200009C084EE07C089E205C085E303C08AE2E1
:1026300001C081E390E008959091AF0292FF0DC038
:10264000282F2871283019F4877F846006C0282F2E
:102650002471243011F48B7F886093FF0DC0282FE4
:102660002871283119F4877E846106C0282F2471CF
:10267000243111F48B7E88612091B00220FF0DC0BF
:10268000382F3871383019F4877F816006C0382FB1
:102690003171313011F48E7F886021FF0DC0282FF9
:1026A0002871283119F4877E816106C0282F217195
:1026B000213111F48E7E886194FD877E089580E03B
:1026C00008950C94C40F0E945D148FE39CE9019758
:1026D000F1F700C000000E945D1480E00E94931397
:1026E00080FF04C00E9461130C944E2608950C9440
:1026F00063130E94CA0F811102C00E9471100E94D0
:10270000D50F809360020E94DD0F9093B0028093FA
:10271000AF020E9477130E94D90F0E943F0A809156
:10272000EE010C94500AE82FF0E0E554FD4F808153
:102730000895089580EA8A95F1F7089500C00895F4
:102740000C949A1308950C94A2130C94A3130C9454
:10275000A2130C94A713F894E82FE295EF70F0E021
:1027600031A1282F2F7081E090E001C0880F2A95B9
:10277000EAF7982F9095932391A392A1892B82A396
:10278000789408950F931F93CF93DF93C1E9D1E01D
:1027900089918F3F11F00E94AB1381E0CB39D807AC
:1027A000B9F7CAE8D1E001E911E089918F3F11F052
:1027B0000E94AB130C171D07C1F7DF91CF911F913A
:1027C0000F910895CF92DF92EF92FF920F931F9394
:1027D000CF93DF938C01C62FD0E0CE018F569E4F52
:1027E0007C01FC0190819F3F09F44DC0D62EF894E6
:1027F000E92FE295EF70F0E081A19F7021E030E0D9
:1028000001C0220F9A95EAF7822B81A382A120951D
:10281000282322A378940E949E13EAE8F1E020E0A6
:1028200030E0C12C51E041914F3FB1F0A42FA2956F
:10283000AF70B0E090968C9190E04F7002C095958B
:1028400087954A95E2F780FD07C0852F022E01C0CB
:10285000880F0A94EAF701C080E0C82A2F5F3F4F33
:102860002730310501F7F70180818F3F11F00E9479
:10287000AB1361E0C11001C060E08D2D0E94A01378
:10288000C00FD11FC882DF91CF911F910F91FF9090
:10289000EF90DF90CF9008950E94C213E1EBF2E039
:1028A000ABEBB2E011921D9282E0EB3BF807D1F75F
:1028B0008AE00E94A8140C94A704FF920F931F9320
:1028C000CF93DF93CDB7DEB72A970FB6F894DEBF6C
:1028D0000FBECDBF8E010F5F1F4F8AE0F80111922E
:1028E0008A95E9F7F12C6F2DC8010E94E213F39449
:1028F000FAE0FF12F8CF4AE050E0B80181EB92E035
:102900000E94A02EFF24F394009709F4F12C892B48
:1029100041F08AE0F801A1EBB2E001900D928A95B6
:10292000E1F72F2D4AE06BEB72E081EB92E00E9421
:10293000A9140E94AD048F2D2A960FB6F894DEBF1D
:102940000FBECDBFDF91CF911F910F91FF900895E2
:102950000895FF920F931F93CF93DF938C01F62E70
:10296000D72FC42F222349F081E0809363020E9475
:102970000126909362028093610280916302882312
:10298000C1F080916102909162020E941926059720
:1029900080F0EF2DFD2FD8014C2F50E0CD01801B92
:1029A000910B841795071CF48D918193F7CF1092AA
:1029B0006302DF91CF911F910F91FF9008950E94C4
:1029C00075250E941B280E9434280E9446280E94D8
:1029D000AD10FBCF80916A0280FF0BC060910701B0
:1029E00085E0689FB0011124759567957595679589
:1029F0002BC081FF09C06091070185E0689FB0018D
:102A000011247595679520C082FF07C0609107016A
:102A100085E0689FB001112417C090916902992345
:102A2000D1F060910601961788F72091070185E0A3
:102A3000289F90011124929FA001939F500D112473
:102A400070E0CA010E94132E6038710540F46115D0
:102A5000710519F406C065E070E0862F08958FE7D0
:102A6000089581E0089580916A0280FF08C0609116
:102A7000030170E0759567957595679521C081FF95
:102A800006C06091030170E07595679519C082FFDB
:102A900004C06091030170E010C090916802992316
:102AA00099F0609102019617A0F780910301899F28
:102AB000C001112470E00E94132E6038710540F4AB
:102AC0006115710519F406C061E070E0862F089564
:102AD0008FE7089581E00895803F21F40E94EA1471
:102AE000819504C0813F29F40E94EA1480936E020C
:102AF0000895823F21F40E94EA14819504C0833F27
:102B000029F40E94EA1480936D020895893F19F414
:102B10000E94331505C08A3F31F40E943315819518
:102B200080936F0208958B3F21F40E9433158195A5
:102B300004C08C3F29F40E943315809370020895DD
:102B40009CE0980F953078F421E030E0A90102C0B4
:102B5000440F551F9A95E2F7CA0190916C02892B98
:102B600080936C0208958D3F21F480916A02816008
:102B70000BC08E3F21F480916A02826005C08F3FB6
:102B800029F480916A02846080936A020895803FEC
:102B900039F490916E0297FF35C010926E0259C0C1
:102BA000813F29F490916E021916BCF32BC09091CD
:102BB0006D02823F29F497FF25C010926D0249C033
:102BC000833F19F41916CCF31DC090916F02893F11
:102BD00029F41916BCF410926F023BC08A3F19F415
:102BE00097FF10C0F8CF8B3F39F49091700297FF98
:102BF00009C0109270022DC08C3F21F49091700298
:102C00001916BCF39CE0980F953080F421E030E079
:102C1000A90102C0440F551F9A95E2F7CA01809599
:102C200090916C02892380936C0213C08D3F21F434
:102C300080916A028E7F0BC08E3F21F480916A02E0
:102C40008D7F05C08F3F29F480916A028B7F80932E
:102C50006A0280916D02811106C080916E0281111D
:102C600002C01092690280916F02811106C08091AA
:102C70007002811102C01092680208950E9401261C
:102C800020916D02211104C020916E02222321F0B7
:102C9000909367028093660220916F02211104C015
:102CA00020917002222321F09093650280936402A8
:102CB0008BE692E00C947D24EF92FF920F931F938A
:102CC000CF93DF9300D000D000D0CDB7DEB786E041
:102CD000EBE6F2E0DE01119601900D928A95E1F7A4
:102CE000E0906D02F0906E0200916F021091700200
:102CF00010926D0210926E0210926F02109270028A
:102D0000E11003C0FF2009F45DC08091660290913C
:102D100067020E941926AC0190916902992339F04B
:102D20002091080130E02417350758F04BC020915E
:102D300009018AE0289F900111242417350718F013
:102D400041C09F3F19F09F5F90936902EE2061F0B0
:102D50000E94EA141E1414F09FEF01C091E0989FA6
:102D6000902D112490936D02FF2061F00E94EA14CF
:102D70001F1414F09FEF01C091E0989F902D112433
:102D800090936E0230916D023323E1F020916E0238
:102D90002223C1F045EB3403C0011124992319F01B
:102DA00090936D0203C081E080936D0235EB2303A5
:102DB000C0011124992319F090936E0203C081E0A1
:102DC00080936E02011103C0112309F45DC080914C
:102DD0006402909165020E941926AC0190916802EC
:102DE000992339F02091040130E02417350758F079
:102DF0004BC0209105018AE0289F900111242417DF
:102E0000350718F041C09F3F19F09F5F909368020B
:102E1000002361F00E943315101614F09FEF01C0DB
:102E200091E0989F902D112490936F02112361F0EF
:102E30000E943315111614F09FEF01C091E0989F86
:102E4000902D11249093700230916F023323E1F0A2
:102E5000209170022223C1F045EB3403C0011124FC
:102E6000992319F090936F0203C081E080936F0261
:102E700035EB2303C0011124992319F090937002BC
:102E800003C081E08093700280916D0281110BC0BC
:102E900080916E02811107C080916F02811103C081
:102EA0008091700281110E943E16EB82FC820D839C
:102EB0001E8386E0FE013196ABE6B2E001900D92F2
:102EC0008A95E1F726960FB6F894DEBF0FBECDBF08
:102ED000DF91CF911F910F91FF90EF900895EBE656
:102EE000F2E086E0DF011D928A95E9F7109269020F
:102EF0001092680210926A020895EF92FF920F9367
:102F00001F93CF93DF938B01682F11110AC04423C5
:102F100029F0E82FF0E0E75EFA4F6491762F862FD4
:102F200075C0212F30E0E82FF0E0442321F0E75E68
:102F3000FA4FE491F0E046E0049FC0011124CFEF86
:102F4000D0E0BE010E94FF2D4BEA4603C001479F1F
:102F5000900D1124800F911D800F911D982F990FB6
:102F6000890FAE01421B530B4E9FD0014F9FB00DF6
:102F70005E9FB00D11249B2F189FA0011124452F97
:102F800055278E01041B150B0E9FA0010F9F500D9E
:102F90001E9F500D11247E01E81AF108E29E800167
:102FA000E39E100DF29E100D1124212F3327C21B1A
:102FB000D30BCE9F9001CF9F300DDE9F300D11249B
:102FC00062307105A9F048F46115710569F061304E
:102FD0007105C9F48B2F752F0DC06430710581F018
:102FE00058F06630710579F47E2F8B2F932F0DC02A
:102FF000832F7B2F9E2F09C08E2F7B2F952F05C0EF
:103000008E2F732F02C07E2F852F692FDF91CF91D6
:103010001F910F91FF90EF90089541E00E947D175E
:10302000089508950E940D180895CF93DF93762F89
:10303000E901682F842F0E941218798368838A839C
:10304000DF91CF9108958091C502282F269530E019
:103050002115310519F48170826005C025323105D2
:1030600024F0817088648093C502089588E090E020
:103070000C94B52ECF92DF92EF92FF926B017C0100
:103080000E942318B701A60188E090E0FF90EF901E
:10309000DF90CF900C94D32E6091C5027091C60240
:1030A0008091C7029091C8020C943A18E5ECF2E0C6
:1030B00083E0808311828FEF828383831482608117
:1030C0007181828193810C943A188091C50280FFAE
:1030D00002C08695089580E008959091C9029330CA
:1030E00018F49F5F9093C902882351F06091C50244
:1030F0007091C6028091C7029091C8020C943A1850
:10310000089581E00C946D189091C902992319F0EB
:1031100091509093C902882351F06091C50270913B
:10312000C6028091C7029091C8020C943A18089583
:1031300081E00C9484188091C90208958093C9029B
:10314000662351F06091C5027091C6028091C7025A
:103150009091C8020C943A18089560E00C949E185F
:103160008091C60208958091C70208958091C80297
:10317000089570E00C94D71E60910E018091C502F5
:1031800080FF0AC080910D0123E0829FC0011124BD
:1031900086539D4F0C94B91880910F0190911001A6
:1031A000891780F7E82FF0E09F01220F331FE20F0D
:1031B000F31FE653FD4F1182108212828F5FF0CF12
:1031C0009091C50290FF16C090910F0120911001BF
:1031D000921770F4E92FF0E0DF01AA0FBB1FEA0F8E
:1031E000FB1FE653FD4F8183608342839F5FF0CFD7
:1031F0000C94BC180895CF93DF9300D01F92CDB7E5
:10320000DEB79091C50290FF0AC09E012F5F3F4F2D
:103210000E9415184B8169818A810E94E0180F90E5
:103220000F900F90DF91CF910895CF93DF93EC0132
:10323000EC81F0E0EC5EFB4F4491E5ECF2E0628162
:1032400081810E94FB188C818F5F8C83DF91CF91ED
:103250000895CF93DF93EC01E5ECF2E043816281C6
:103260008C810E94FB188C818F5F8C83DF91CF91C2
:1032700008950F931F93CF93DF9300D01F92CDB784
:10328000DEB78C018091710281110AC09E012F5F0F
:103290003F4F4FEF6FEF0E9415188A8180937102A4
:1032A000F8018481813051F028F0823061F440913E
:1032B00071020AC08091710240E007C06091710202
:1032C00040E080E003C040E080E060E00E94E01861
:1032D000F801848190E0019663E070E00E94132E73
:1032E00084830F900F900F90DF91CF911F910F91DA
:1032F0000895AF92BF92CF92DF92EF92FF920F9319
:103300001F93CF93DF9300D01F92CDB7DEB7182F56
:10331000F62E042FE22E9091C50290FF6DC0E92F8A
:10332000E695AE2FB0E0A556BE4F8C9180937D02FE
:103330009E7F923061F49E012F5F3F4F812F0E944C
:1033400015184B8169818A810E94E01843C0823040
:1033500019F40091C8023EC0863019F41091C602DB
:1033600039C08930D9F38931A9F5E9518E2F81709F
:10337000D82EE695F0E0EC5EFA4FA590B490C12C03
:10338000BB2460911101C61618F52C2D30E0A29EC9
:10339000C001A39E900DB29E900D112470E00E947A
:1033A000FF2D812FD11002C0860F01C0861B909186
:1033B0000F01290F311DA901440F551F240F351F7F
:1033C00026533D4F402F6F2D0E941518C394D9CF1F
:1033D0000E94BC181093C602F092C7020093C80264
:1033E000EE2051F06091C5027091C6028091C70233
:1033F0009091C8020E943A180F900F900F90DF91A1
:10340000CF911F910F91FF90EF90DF90CF90BF90E1
:10341000AF900895E5ECF2E09181282F438162811D
:1034200088E0890F0C94791981E00C940A1AE5EC74
:10343000F2E09181282F4381628188EF890F0C94FB
:10344000791981E00C94171AE5ECF2E0628121E130
:10345000620F08F46FEF282F438181810C94791952
:1034600081E00C94241AE5ECF2E0628121E1621B18
:1034700008F460E0282F438181810C94791981E060
:103480000C94331AE5ECF2E0438121E1420F08F499
:103490004FEF282F628181810C94791981E00C947F
:1034A000421AE5ECF2E0438121E1421B08F440E0DE
:1034B000282F628181810C94791981E00C94511A32
:1034C00020E00C947919FF920F931F93CF93DF9311
:1034D000EC01F12C0FEF10E060911101F616F0F401
:1034E00080910F012F2D30E0280F311DC901880F69
:1034F000991F280F391F26533D4F70E0C8010E94C5
:10350000132E962F8C814091C8026091C702F99EBC
:10351000800D11240E941518F394DECF0E94BC1870
:103520009A818C8190FF02C08F5F01C081508C8393
:10353000DF91CF911F910F91FF900895AF92BF92AD
:10354000CF92DF92EF92FF920F931F93CF93DF936F
:10355000FC01828180FF02C00FEF01C001E010E09A
:103560004EE0A42E80911101181708F043C08091FD
:103570000F01C12ED12CE601C80FD11DCE01880F3D
:10358000991FC80FD91FC653DD4F198218821A829E
:1035900034E0E32EF12CB12C809173028B0D8F302F
:1035A0002CF06A2D0E94F12D892F05C087FF03C0E2
:1035B00090911101890F082E000C990BC816D9069D
:1035C00091F48091C8028E9DA0018F9D500D112411
:1035D00055954795559547959E016091C7028091F5
:1035E000C6020E941518B00EF1E0EF1AF108A1F61C
:1035F0001F5FB8CF0E94BC1880917302013031F474
:10360000811102C080911101815007C090E00196A4
:103610006091110170E00E94132E80937302DF917C
:10362000CF911F910F91FF90EF90DF90CF90BF90BF
:10363000AF900895CF9380910F0190911001891759
:1036400070F4E82FF0E09F01220F331FE20FF31F09
:10365000E653FD4F1182108212828F5FF0CFC0E0DF
:1036600060911101C617C0F5EC2FF0E070E0CF01BA
:103670000E94132E20910F01820F20917202022EC0
:10368000000C330B90E0E217F307CCF020910C0113
:10369000022E000C330B2E173F078CF09C01220FDB
:1036A000331F820F931F9C0126533D4F4091C80248
:1036B0006091C7028091C6020E9415180BC0FC01E0
:1036C000EE0FFF1F8E0F9F1FFC01E653FD4F11826F
:1036D00010821282CF5FC4CF0E94BC1820910B01D0
:1036E00080917202820F8093720290910C01920F6E
:1036F00090930C0119165CF4082E000C990B409164
:10370000110150E041505109841795071CF0219593
:1037100020930B01CF9108958F929F92AF92BF9209
:10372000CF92DF92EF92FF920F931F93CF93DF938D
:103730008C01FC014481C42FD0E09E01DE010E9477
:103740005E2E9B01AC010E94742E6B017C01E0E2B5
:10375000F0E0EC1BFD0BA5E5B0E09B01AC010E9485
:10376000742E4B015C019F01DF010E94562E9B01CC
:10377000AC010E947F2E9B01AC012C0D3D1D4E1D06
:103780005F1DC501B4010E94272EC22FD22F2A32FD
:1037900028F4F3E02F9F900111240DC025E530E0BF
:1037A0002C1B3109C901880F991F280F391F37FFBA
:1037B00002C02F5F3F4F35952795C22FC095F12C42
:1037C00085E5E82EED1A80911101F816C8F4F1FC98
:1037D00002C08E2D01C08D2F90910F012F2D30E052
:1037E000290F311DA901440F551F240F351F2653E2
:1037F0003D4F4C2F6091C7020E941518F394E3CF00
:103800000E94BC18F8018481811102C091E003C0BC
:10381000803219F49FEF90930A0190910A01890F69
:10382000F8018483DF91CF911F910F91FF90EF906A
:10383000DF90CF90BF90AF909F908F9008950F939F
:103840001F93CF93DF93EC0100E010E08091110112
:10385000282F30E00217130724F590910F019801EB
:10386000290F311DA901440F551F240F351F265361
:103870003D4F869590E04C81081719071CF44423AE
:1038800031F002C0411103C04091C80201C040E0C4
:103890006091C7028091C6020E9415180F5F1F4FEA
:1038A000D5CF0E94BC188C8190E001968170992739
:1038B0008C83DF91CF911F910F910895E5ECF2E099
:1038C00080818E7F808360817181828193810E945B
:1038D0003A1810927E022FEF80E792E0215080404C
:1038E0009040E1F700C000000C94BC18E5ECF2E059
:1038F00080818E7F808310927E022FEF80E792E09E
:10390000215080409040E1F700C000000C94BC18AA
:1039100010927E0280917B0281110AC081E0809327
:103920007B028091C502817080937A020C94761C90
:1039300008956091C502669570E04BE050E082E129
:1039400091E00E94932E892B19F481E080937E02EE
:103950000E940126909375028093740208959091BD
:10396000C50290FF35C09170811102C0926006C0FF
:10397000853210F0986402C0880F982B9093C5028E
:10398000662351F06091C5027091C6028091C70212
:103990009091C8020E943A186091C502669570E045
:1039A0004BE050E082E191E00E94932E892B19F0C8
:1039B00010927E0202C00E94991C81E080937702DF
:1039C0004091C8026091C7028091C6020C94601AAF
:1039D0000895682F9091C502969581E0890F8532F0
:1039E00008F081E00C94AF1C81E00C94E91C682F76
:1039F0009091C50296958FEF890F09F484E20C949B
:103A0000AF1C81E00C94F71C61E00C94AF1CE5EC5A
:103A1000F2E080818160808386950C94041D809102
:103A2000C50280FD0C945E1C0C94071D60E00C9494
:103A3000AF1C80917C0281112EC00E94CA0F81119F
:103A400004C00E9471100E9456180E94361860939C
:103A5000C5027093C6028093C7029093C8026E7F1E
:103A600061F40E9456180E9436186093C502709344
:103A7000C6028093C7029093C8020E942318109236
:103A80007E028091C50280FF03C086950E94161DAC
:103A900081E080937C020895E5ECF2E08081816012
:103AA000808386950C94161D10927B0280917A0279
:103AB00081110E944C1D0C94991C0F931F93CF935E
:103AC000DF9380917E02882309F485C080917D0276
:103AD000E091C502E695E81BE0937602823049F456
:103AE000F0E0E05FFB4FE491CE2FD0E005E119E17B
:103AF00049C0863049F4F0E0E35FFB4FE491CE2FFC
:103B0000D0E009E219E13EC0893051F4E695F0E0D9
:103B1000E65FFB4FE491CE2FD0E003E61AE132C01E
:103B20008F3051F4E695F0E0E95FFB4FE491CE2F42
:103B3000D0E00EE91AE126C0853149F4F0E0EC5FEF
:103B4000FB4FE491CE2FD0E00AE11BE11BC088318E
:103B500081F0833239F4E2E0F4E0C591D49109E3D5
:103B600019E110C0843251F4C4EFD1E00FE11CE13F
:103B700009C0C8E2D0E00CE81BE104C0C0EDD7E00A
:103B800001E118E180917702882361F010927702B9
:103B90000E9401269093750280937402109279021C
:103BA000109278020E940126E0917402F091750251
:103BB0008E1B9F0B8F3F9F4770F4EC0FFD1FF09300
:103BC0007502E093740284E792E0F801DF91CF91EF
:103BD0001F910F910994DF91CF911F910F9108953B
:103BE000882311F0FA0101C0FB010994CF93DF9300
:103BF000C82FD62F0E9465188C1740F00E946518B8
:103C00008D1720F4DF91CF910C94F41C8C2FDF9151
:103C1000CF910C94041D1F93CF93DF93FB0112816E
:103C2000112309F4BCC0EC010E94050F8272CC3C48
:103C3000FCE5DF0709F497C008F043C0C63CECE59B
:103C4000DE0709F47CC0D8F4C33C9CE5D90709F42D
:103C50006AC038F4C23CDC4509F0A4C00E940F1DC4
:103C6000A0C0C43C9CE5D90709F462C0C53CDC4552
:103C700009F098C041E25AE164E17AE15DC0C93CD3
:103C8000FCE5DF0709F465C070F4C73CECE5DE072E
:103C900009F45AC0C83CDC4509F084C040E35AE14D
:103CA0006FE37AE149C0CA3C9CE5D90709F456C0E4
:103CB000CB3CDC4509F076C048E958E161E878E1A1
:103CC0003BC0C13DFCE5DF0709F45AC098F4CE3C87
:103CD0009CE5D90709F44EC008F44AC0CF3CFCE586
:103CE000DF0709F44AC0C03DDC4509F05BC06EE067
:103CF00089E04EC0C43D9CE5D90709F447C050F4A3
:103D0000C23DFCE5DF07F9F1C33DDC4509F04AC0DF
:103D100088E142C0C53D9CE5D907E9F1CD35DD45D7
:103D200009F43FC03FC041E05DE164EF7CE104C0C5
:103D300044EF5CE161E07DE10E94F01D32C044E1AE
:103D40005AE161E27AE1F8CF4FE35AE160E37AE1C8
:103D5000F3CF4DE55AE16EE47AE1EECF4EE45AE15D
:103D60006DE57AE1E9CF41E858E168E978E1E4CF2F
:103D700081E012C065E082E00BC068E086E008C028
:103D800064E18FE005C067E185E102C062E289E19C
:103D90000E94F61D06C083E20E94041D02C011E0CD
:103DA00001C010E0812FDF91CF911F910895539AA8
:103DB0002BB1277F3BB138604FB7F894FC01CB01A2
:103DC000880F991F680F791F6E0F7F1FE617F7077F
:103DD00089F0819198E03BB9000000C087FF2BB9C2
:103DE000880F000000C000C000C02BB900C09A9529
:103DF00091F7ECCF4FBF8FE594E00197F1F700C04A
:103E00000000089583E290E00E94AD2E813281F49B
:103E100084E290E00E94AD2E813151F485E290E081
:103E20000E94AD2E91E0863009F090E0892F01C00C
:103E300080E081700895CF93C82F811102C06FEF89
:103E400001C061E283E290E00E94C12EC11102C074
:103E50006FEF01C061E184E290E00E94C12EC111C8
:103E600002C06FEF01C066E085E290E0CF910C9454
:103E7000C12E089586E290E00E94AD2E682F70E07A
:103E800080E090E0089586E290E00C94C12E80E0FE
:103E90000E941B1F60E070E0CB010E94431F0E9444
:103EA000EA200E94C92181E00C941B1F0E94391F47
:103EB0000E94021F811102C00C94471F0895CF93E6
:103EC000FB01C281CC23E9F09C0122513F45203106
:103ED000310520F482510E94D9210CC08031FFE5C8
:103EE0009F0751F481E00E94630A43E062E081E0B1
:103EF0000E949E04C0E018C081319F45A9F482E071
:103F0000F2CF8031EFE59E0711F481E004C08131EA
:103F10009F4549F482E00E946E0A43E062E081E03E
:103F20000E949E0401C0C1E08C2FCF9108952FEF15
:103F3000FC0120830895CF93DF93EC0188818138C1
:103F400089F028F48038A1F40E94B61810C0823895
:103F500061F0833869F40E94B01889830E94B31815
:103F60008A8306C00E94651802C00E949B1889833C
:103F7000DF91CF910895CF93DF93EC018881813851
:103F8000B1F058F4803851F5D9810E94B318C82F88
:103F90000E94B0184D2F6C2F1DC08238B1F08338AD
:103FA000E9F40E94B618482F6A81898113C089817B
:103FB0000E94161D8981811104C0DF91CF910C945C
:103FC000761CDF91CF910C944C1D8981DF91CF91AC
:103FD0000C94AD18DF91CF910C94601ADF91CF91C2
:103FE0000895EF92FF920F931F93CF93DF93EC010D
:103FF000062F0196E8814E2F50E0FA013197E33108
:10400000F10508F09AC0EC58FF4F0C94492E198224
:1040100089E056C08981823039F0833061F0813087
:1040200029F50E940D2602C00E943A1F9A838B83B5
:104030007C836D8384C07E0182E0E80EF11C10E079
:10404000812F0E949313F70181937F011F5F1A3024
:10405000B9F775C08981823049F46A817B818C818E
:104060009D810E944F2E0E94431F69C0602FCE0188
:104070000E94971F64C04B816A8189810E94BC2085
:104080009C838D835CC02C813D813227232732277E
:104090004B816A8189810E94D52051C00E94EA200B
:1040A0004EC00E94BB1F4BC00E949B1F48C00E9475
:1040B0004C1845C00E947C2124C00E947E21998317
:1040C0008A833DC06B8170E089819A81AE014C5F2B
:1040D0005F4F9827892798270E94812130C06B81E4
:1040E00070E089819A81AE014C5F5F4F98278927E4
:1040F00098270E94A62123C00E94C92120C00E94A7
:10410000A92089831CC06B8170E089819A81AE01EE
:104110004C5F5F4F9827892798270E9429210FC05D
:104120006B8170E089819A81AE014C5F5F4F982767
:10413000892798270E944D2102C08FEF8883602F26
:10414000CE01DF91CF911F910F91FF90EF900C94D2
:104150000C2784E0089550E0440F551F2EE0629F25
:10416000400D511D11249A016CE8869F200D311DD0
:104170001124C901879608950F931F93CF93DF935E
:104180000E94AB208C010E94AD2EC82FD0E0DC2F06
:10419000CC27C80101960E94AD2E9E01282BC90193
:1041A000DF91CF911F910F9108950F931F93CF939C
:1041B000DF93122F032F0E94AB20EC01602F0E948F
:1041C000C12E612FCE010196DF91CF911F910F91EA
:1041D0000C94C12EAF92BF92CF92DF92EF92FF92DA
:1041E0000F931F93CF93DF93A12CE12CF12CB12CD3
:1041F00000E010E0C0E0D0E06701C00ED11EFE017B
:10420000EE0FFF1FEC0DFD1DEE5DFE4F259134916D
:104210004C2F6B2D8A2D0E94D5202196C730D105B9
:1042200071F7025F1F4FB3948AE0B812E3CF8CE8B6
:10423000E80EF11CA39484E0A812D9CFDF91CF91AE
:104240001F910F91FF90EF90DF90CF90BF90AF90B4
:104250000895EF92FF920F931F93CF93DF93EA019C
:104260007A01E60EF71E8C01C8018796CE15DF0590
:1042700069F0003322E0120720F40E94AD2E8883FB
:1042800001C0188221960F5F1F4FEECFDF91CF91B3
:104290001F910F91FF90EF900895EF92FF920F936F
:1042A0001F93CF93DF93EA017A01E60EF71E8C018C
:1042B000C8018796CE15DF0559F0003322E01207BA
:1042C00018F468810E94C12E21960F5F1F4FF0CF16
:1042D000DF91CF911F910F91FF90EF900895462F9E
:1042E000843038F47A3028F4673018F4672F0C944F
:1042F000BC2080E090E0089580E1089589EA91E093
:104300000895EF92FF920F931F93CF93DF93EA01EB
:104310007A01E60EF71E8C01C801895A9D4FCE1511
:10432000DF0569F0093A21E0120720F40E94AD2E62
:10433000888301C0188221960F5F1F4FEDCFDF9158
:10434000CF911F910F91FF90EF900895EF92FF9200
:104350000F931F93CF93DF93EA017A01E60EF71EC6
:104360008C01C801895A9D4FCE15DF0559F0093AD5
:1043700021E0120718F468810E94C12E21960F5F78
:104380001F4FEFCFDF91CF911F910F91FF90EF90D3
:104390000895CF93DF93C7E5D2E060E0CE010E949D
:1043A000C12E2196C11584E0D807B9F7DF91CF91CE
:1043B0000895DF92EF92FF920F931F93CF93DF93B5
:1043C00000D000D0CDB7DEB7F82E8FE08F15E8F122
:1043D0008FEF93E00E94AD2E811137C007E512E008
:1043E000FF2069F0011584E0180779F1C8010E94E7
:1043F000AD2E811101C0FA940F5F1F4FF1CF1982CA
:104400001A821B821C82DD24D39478018FEFE81A74
:10441000F80AC8010E94AD2E89831A828823A9F068
:104420009FEF980F933058F48A83D9820E5F1F4F05
:10443000C7010E94AD2E8B83882339F07801CE010D
:1044400001960E94EE058701E0CF0F900F900F902C
:104450000F90DF91CF911F910F91FF90EF90DF9020
:1044600008950F931F93CF93DF93C42FD22FFC0196
:1044700082818823C9F0409381020E940126909393
:10448000800280937F0280E28C0F883008F057C052
:10449000C77081E001C0880FCA95EAF7DF91CF911C
:1044A0001F910F910C94840780918102481330C0B2
:1044B00080917F02909180020E941926883C91058C
:1044C00038F510E21D0FCD17B9F080E28C0F88305F
:1044D00040F4C77081E001C0880FCA95EAF70E94D6
:1044E0008B07183028F581E09D2F977001C0880F49
:1044F0009A95EAF70E948407802F0E947B07183064
:10450000F0F4D77081E001C0880FDA95EAF70AC0AD
:1045100080E28C0F883098F4C77081E001C0880F6A
:10452000CA95EAF7DF91CF911F910F910C948B07F9
:10453000802FDF91CF911F910F910C947B07DF911A
:10454000CF911F910F9108950F939C01CB01233FB1
:104550004CE5340731F188F4283DFCE53F07D9F0FC
:10456000293D4CE5340779F1273D3C45A9F506E2A4
:1045700021EE41EE67ED7CE52BC0253FFCE53F07D2
:10458000E1F0A8F0263F3C4539F507E225EE46EE7E
:1045900066EF7CE51DC007E225EE45EE68ED7CE5A3
:1045A00017C006E221EE40EE63EF7CE511C007E2A2
:1045B00025EE44EE64EF7CE50BC006E221EE42EE10
:1045C00065EF7CE505C008E221E045EE69ED7CE59C
:1045D0000E94312280E008C0FC018281882319F00A
:1045E0001092810201C081E00F910895CF93DF9373
:1045F000EC01FB018281882309F41FC1C230FCE574
:10460000DF0708F41BC1C6319CE5D90738F09E01CD
:104610002A5F3C452930310508F010C10E94DD0FAA
:104620009093B0028093AF02C031ECE5DE0709F44D
:10463000C3C008F041C0C8308CE5D80709F49AC05F
:10464000F0F4C430ECE5DE0709F487C068F4C2304A
:104650008CE5D80709F477C0C330DC4509F0E3C026
:104660008091AF02826076C0C630ECE5DE0709F4C7
:104670006EC008F07BC08091AF0288606BC0CC3008
:104680008CE5D80709F485C068F4CA30ECE5DE078C
:1046900009F474C008F079C00E94E4098091AF0267
:1046A000806858C0CE308CE5D80709F476C008F091
:1046B0007FC08091AF028BC0CB3FECE5DE0709F4F1
:1046C0004FC018F5C3318CE5D80709F47DC078F4E4
:1046D000C131ECE5DE0709F473C0C231DC4509F0F5
:1046E000A2C00E94E4098091AF028F7733C0C53128
:1046F0008CE5D80709F472C008F486C0CA3FDC45CF
:1047000009F091C08091B0023EC0CF3FFCE5DF07C9
:1047100009F45FC058F4CD3F9CE5D90709F444C0C3
:1047200008F43FC08091B00282602DC0C130FDE529
:10473000DF0709F475C008F45DC0C230DD4509F03B
:1047400072C080E06EC08091AF02816003C0809132
:10475000AF0280618093AF0266C08091AF0211C04A
:104760008091B00282608093B0025DC08091AF0200
:104770008062F0CF8091AF028064ECCF8091AF0275
:1047800088608460E7CF8160EECF8091AF028E7F3A
:10479000E1CF8091AF028D7FDDCF8091AF02877F27
:1047A000D9CF8091B00218C08091B0028D7FDBCF4D
:1047B0008091AF028F7ECECF8091AF028F7DCACF26
:1047C0008091AF028F7BC6CF8091AF02877F8B7FB6
:1047D000C1CF8091B0028D7F8E7FC5CF8091AF0217
:1047E00082FB222720F991E0922790FB82F990FB2F
:1047F00083F9B0CF8091B002982F909591708E7F01
:10480000892B90FB81F9AFCF0E94E4098091AF0220
:1048100087FB222720F991E0922790FB87F99ACF16
:1048200081E00E9473108091AF029091B0020E94CB
:10483000EE0F0E94E40980E001C081E0DF91CF919A
:104840000895CF93DF9386319C4541F5EB010E949B
:10485000050F982F8A812091000130910101882352
:1048600079F09A7A81E009F480E0809382029111D4
:1048700002C069E201C065E3C9010E944D250AC07A
:1048800080918202811102C069E201C065E3C90121
:104890000E9458250E94570F80E001C081E0DF91FF
:1048A000CF91089590938802809387020895E091B4
:1048B0008702F0918802309721F00190F081E02D7D
:1048C000099480E00895E0918702F0918802309782
:1048D00099F020912701222359F02091AF0227FF60
:1048E00007C0DC012C9111962C93119725E02C9395
:1048F0000280F381E02D09940895E0918702F09100
:104900008802309739F022E0DC012C930480F58195
:10491000E02D099408952091850230918602281790
:10492000390771F09093860280938502E0918702A7
:10493000F0918802309721F00680F781E02D0994EC
:10494000089520918302309184022817390771F06D
:104950009093840280938302E0918702F091880211
:10496000309721F00084F185E02D09940895FC0131
:10497000329680912701882331F08091AF0287FF22
:1049800002C09EE101C096E080E0915028F02191A4
:104990002223D9F38F5FF9CF0895662351F1209137
:1049A00027012223E9F02091AF0227FF19C0462FEB
:1049B0004695469546954E31E0F4677021E030E02B
:1049C00002C0220F331F6A95E2F7FC01E40FF11DCC
:1049D000828190E02823392381E0232B69F409C0E8
:1049E000FC01329608962191621729F0E817F90721
:1049F000D1F780E0089581E008959C01FC01329692
:104A00009FEF80E04191461789F09F3F19F44111D3
:104A100001C0982F8F5F8630A9F79F3F39F0F901C9
:104A2000E90FF11D97FDFA956283089508959C01A1
:104A30002A5F3F4FFC014281461301C0128201965A
:104A400082179307B9F70895262F26952695269560
:104A50002E3168F4FC01E20FF11D677021E030E0B7
:104A600001C0220F6A95EAF78281282B22830895DC
:104A7000262F2695269526952E3170F4FC01E20FFF
:104A8000F11D677021E030E001C0220F6A95EAF75E
:104A900020958281282322830895209127012223B3
:104AA00029F02091AF0227FD0C9424250C94FD24BD
:104AB00020912701222329F02091AF0227FD0C9499
:104AC00038250C94172520912701FC0132962223CA
:104AD00031F08091AF0287FF02C08EE101C086E015
:104AE000DF011D928A95E9F70895089508950C94C1
:104AF00076250C947625CF930E9479250E945D142B
:104B00000E947725C0E08C2F0E949313811104C06E
:104B1000CF5FCA30C1F701C081E0CF9108950C94F6
:104B200076250C948F258091FC02843059F10E94E7
:104B3000912580E00E94F9050E94881C109289024C
:104B400020E488E190E00FB6F894A8958093600087
:104B50000FBE2093600083B7817F846083BF83B7DB
:104B6000816083BF7894889583B78E7F83BF0FB6AB
:104B7000F894A895809160008861809360001092FD
:104B800060000FBE08950C9476250E94E4090E94EF
:104B900057240E94F9050E94541D0C94C3251F92AE
:104BA0000F920FB60F9211248F939F93AF93BF93E1
:104BB00080918902811113C08091F4029091F502D5
:104BC000A091F602B091F7024196A11DB11D80930C
:104BD000F4029093F502A093F602B093F702BF910E
:104BE000AF919F918F910F900FBE0F901F901895CE
:104BF00082E084BD93E095BD9AEF97BD80936E00EF
:104C000008952FB7F8948091F4029091F502A09145
:104C1000F602B091F7022FBF08952FB7F894609174
:104C2000F4027091F5028091F6029091F7022FBF85
:104C300008959C014FB7F8948091F4029091F50289
:104C4000A091F602B091F7024FBF821B930B08951B
:104C500078941F920F920FB60F9211248F939F9307
:104C6000AF93BF938091F4029091F502A091F60268
:104C7000B091F7020196A11DB11D8093F4029093AB
:104C8000F502A093F602B093F702BF91AF919F9106
:104C90008F910F900FBE0F901F90189581E0809319
:104CA000E00080E28093D8001092C9008FE19EE47A
:104CB0000197F1F700C0000087E090EBDC018093E2
:104CC000050390930603A0930703B09308039CE0A9
:104CD00088E10FB6F894A895809360000FBE90937A
:104CE0006000FFCF9093D1018093D001089580910F
:104CF000AD0208959091FC02943029F580938A02C8
:104D000070938C0260938B029093E9008FEF9091E7
:104D1000E800815095FD06C095ED9A95F1F70000E9
:104D20008111F5CF8091E80085FF0DC040E050E093
:104D300063E070E08AE892E00E9408298091E80030
:104D40008E778093E8000895BC0184E00C947A2665
:104D5000BC0183E00C947A2624E02093E9002FEF35
:104D60003091E800215035FD06C035ED3A95F1F758
:104D700000002111F5CF2091E80025FF0BC040E095
:104D800050E066E070E00E9408298091E8008E778C
:104D90008093E8000895CF93DF9320912701222389
:104DA00039F02091AF0227FF03C060E224E002C087
:104DB00068E021E02093E9002FEF3091E8002150D6
:104DC00035FD06C035ED3A95F1F700002111F5CF1C
:104DD0002091E80025FF1DC0EC0180912701811181
:104DE00005C040E050E068E070E003C070E040E0E3
:104DF00050E0CE010E9408298091E8008E778093D0
:104E0000E80080E2FE01ADE8B2E001900D928A95E3
:104E1000E1F7DF91CF910895CF93603219F520919A
:104E2000FC022430F9F4C091E900CF703091EC001D
:104E3000232F217030FD20E8C22B22E02093E900CF
:104E40002091E80020FF0BC040E050E060E270E0FD
:104E50000E9408298091E8008E778093E800CF7047
:104E6000C093E900CF9108958091FB02811109C0A0
:104E70000E94E42A0E94412B8091E200846080938A
:104E8000E20008951092FB02089508950895089590
:104E900042E061EC81E00E945D2A42E261EC84E044
:104EA0000E945D2A42E261EC82E00E945D2A42E2B9
:104EB00060EC83E00C945D2A8091FE02833009F45B
:104EC00062C030F4813071F0823009F49BC00895E3
:104ED0008A3009F487C08B3009F46DC0893009F03D
:104EE000A9C020C08091FD02813A09F0A3C0809141
:104EF000E800877F8093E80080910103909102038E
:104F0000892B21F460E28DE892E003C060E080E04C
:104F100090E070E00E949E298091E8008B7780935A
:104F2000E80008958091FD02813209F083C08091EC
:104F3000010390910203009719F0029709F07AC0DB
:104F40008091E800877F8093E8008091E80082FDEF
:104F500005C08091FC028111F8CF6CC02091F30054
:104F60008091F20090E0922B029729F48091F10059
:104F70008B7F813021F48091F1008093AD0280918C
:104F8000E8008B7753C08091FD02813A09F052C04E
:104F90008091010390910203892B09F04BC080910D
:104FA000E800877F8093E8008091E80080FFFCCFD5
:104FB0008091270136C08091FD028132D9F5809120
:104FC000010390910203892BA9F58091E800877F66
:104FD0008093E8000E94922A8091FF02809327012B
:104FE0000C94E4098091FD02813221F58091E80062
:104FF000877F8093E8000E94922A8091000380932B
:10500000AE0208958091FD02813AA1F48091E800FA
:10501000877F8093E8008091E80080FFFCCF80913B
:10502000AE028093F1008091E8008E778093E800D3
:105030000C94922A089584B7877F84BF0FB6F894A2
:10504000A895809160008861809360001092600054
:105050000FBE90E080E80FB6F894809361009093C3
:1050600061000FBE0C94A3100E94E42A0E94412B01
:10507000E2EEF0E080818460808378940E94D62DF7
:105080000E94B1108DE191E00C945224CF93DF93F4
:10509000CDB7DEB7A0970FB6F894DEBF0FBECDBF79
:1050A0008091FC028530A9F48091FC02853079F46E
:1050B0000E9493258091FA028823B1F30E947B25F8
:1050C000882391F30E94F2280E94E409EDCF0E9408
:1050D000C5250E94BB108091FC02843011F583E04D
:1050E0008093E9008091E80082FF1BC08091E80076
:1050F00085FF0AC040E050E060E270E0CE0101961A
:105100000E94532991E001C090E08091E8008B77E4
:105110008093E800992329F060E2CE0101960E9475
:10512000F11FA0960FB6F894DEBF0FBECDBFDF9182
:10513000CF9108950C949C28292F332723303105D3
:10514000C9F060F42130310581F02230310509F0D9
:1051500041C08BE590E025E436E040C021323105C6
:10516000E1F02232310531F135C082E190E020EAF0
:1051700036E034C099278130910549F028F0029734
:1051800049F5E9E1F6E005C0E1E4F6E002C0EBE252
:10519000F6E0849190E09F0121C063307105D0F466
:1051A000660F771FFB01E753FE4F2081318189E0B5
:1051B00090E014C06330710568F4FB01EE0FFF1F2F
:1051C000ED53FE4F20813181FB01E054FE4F808181
:1051D00090E004C080E090E020E030E0FA0131830C
:1051E0002083089580E189BD82E189BD09B400FE74
:1051F000FDCF8091D8008F7D8093D8008091E00012
:1052000082608093E0008091E00081FDFCCF0895F2
:10521000CF92DF92EF92FF920F931F93CF93DF9382
:10522000EC018B017A010E94B12A811133C0E11493
:10523000F10439F0F70180819181081B190BC80F27
:10524000D91FC12CD12C0115110519F18091E8004D
:1052500085FD16C08091E8008E778093E800E11408
:10526000F10449F0F70180819181C80ED91ED182E5
:10527000C08285E00FC00E94B12A882321F30AC0B2
:1052800089918093F10001501109FFEFCF1ADF0AD5
:10529000DACF80E0DF91CF911F910F91FF90EF90D7
:1052A000DF90CF900895CF92DF92EF92FF920F930D
:1052B0001F93CF93DF93EC018B017A010E94B12AF7
:1052C000811133C0E114F10439F0F701808191813B
:1052D000081B190BC80FD91FC12CD12C01151105A2
:1052E00019F18091E80085FD16C08091E8008B7768
:1052F0008093E800E114F10449F0F7018081918185
:10530000C80ED91ED182C08285E00FC00E94B12A8A
:10531000882321F30AC08091F1008993015011097B
:10532000FFEFCF1ADF0ADACF80E0DF91CF911F9134
:105330000F91FF90EF90DF90CF900895209103039D
:10534000309104032617370748F06115710539F4C9
:105350002091E8002E772093E80001C0B901FC01FC
:1053600020E06115710579F18091FC028823F1F14B
:105370008530F1F18091E80083FD3CC08091E80028
:1053800082FD2EC08091E80080FFEBCF2091F300DA
:105390008091F20090E0922B6115710551F08830F8
:1053A000910538F421912093F10061507109019623
:1053B000F3CF21E0089709F020E08091E8008E7794
:1053C0008093E800CECF2111CFCF0AC08091FC029C
:1053D000882361F0853061F08091E80083FD0AC088
:1053E0008091E80082FFF2CF80E0089582E0089586
:1053F00083E0089581E00895209103033091040330
:105400002617370748F06115710539F42091E80037
:105410002E772093E80001C0B901FC0120E061155E
:10542000710591F18091FC02882309F440C0853018
:1054300009F43FC08091E80083FD3DC08091E80001
:1054400082FD2FC08091E80080FFE9CF2091F3001A
:105450008091F20090E0922B6115710559F088302F
:10546000910540F424912093F10031966150710927
:105470000196F2CF21E0089709F020E08091E80042
:105480008E778093E800CBCF2111CCCF0AC08091DA
:10549000FC02882361F0853061F08091E80083FD93
:1054A0000AC08091E80082FFF2CF80E0089582E098
:1054B000089583E0089581E00895982F973068F566
:1054C0009093E900981739F07091EC002091ED006D
:1054D0005091F00003C0242F762F50E021FD02C030
:1054E0009F5FECCF3091EB003E7F3093EB0030912B
:1054F000ED003D7F3093ED003091EB003160309353
:10550000EB007093EC002093ED005093F00020919D
:10551000EE0027FDE5CF80E008958F708093E900CD
:1055200081E008958091FD0287FF11C08091E8001D
:1055300082FD05C08091FC028111F8CF11C08091DD
:10554000E8008B770BC08091FC02882349F08091A2
:10555000E80080FFF8CF8091E8008E778093E80024
:1055600008952091E4003091E50095E64091EC002B
:10557000842F817040FF23C08091E80080FD1DC012
:105580008091FC02882399F0853099F08091EB009E
:1055900085FD11C04091E4005091E50024173507C6
:1055A00029F3915011F09A01E1CF84E0089582E04F
:1055B000089583E0089581E0089580E00895409182
:1055C000E80042FFDDCF08950E94522B0E945A2B23
:1055D000E0EEF0E0808181608083E8EDF0E08081A2
:1055E0008F77808319BCA7EDB0E08C918E7F8C9370
:1055F00080818F7E80831092FB0208950F931F930A
:10560000CF93DF930E94522B0E945A2BC8EDD0E01B
:1056100088818F77888388818068888388818F7D5F
:10562000888319BC1092FC021092F8021092FA02C0
:105630001092F90200EE10E0F80180818B7F8083E8
:1056400088818160888342E060E080E00E945D2A7A
:10565000E1EEF0E080818E7F8083E2EEF0E08081F9
:1056600081608083808188608083F80180818E7F63
:105670008083888180618883DF91CF911F910F9112
:105680000895E8EDF0E080818F7E8083E7EDF0E023
:1056900080818160808384E082BF81E08093FB020F
:1056A0000C94FE2AE8EDF0E080818E7F80831092DA
:1056B000E20008951092DA001092E10008951F921E
:1056C0000F920FB60F9211242F933F934F935F9336
:1056D0006F937F938F939F93AF93BF93EF93FF93BA
:1056E0008091E10082FF0BC08091E20082FF07C041
:1056F0008091E1008B7F8093E1000E94D52D809105
:10570000DA0080FF1FC08091D80080FF1BC080910D
:10571000DA008E7F8093DA008091D90080FF0DC07F
:1057200080E189BD82E189BD09B400FEFDCF81E041
:105730008093FC020E94342705C019BC1092FC0221
:105740000E9442278091E10080FF19C08091E20011
:1057500080FF15C08091E2008E7F8093E2008091EF
:10576000E20080618093E2008091D80080628093A3
:10577000D80019BC85E08093FC020E9446278091E6
:10578000E10084FF30C08091E20084FF2CC080E102
:1057900089BD82E189BD09B400FEFDCF8091D800AA
:1057A0008F7D8093D8008091E1008F7E8093E1000F
:1057B0008091E2008F7E8093E2008091E200816020
:1057C0008093E2008091F802882311F084E007C002
:1057D0008091E30087FD02C081E001C083E08093F7
:1057E000FC020E9447278091E10083FF29C080913D
:1057F000E20083FF25C08091E100877F8093E10074
:1058000082E08093FC021092F8028091E1008E7F8A
:105810008093E1008091E2008E7F8093E20080918E
:10582000E20080618093E20042E060E080E00E945C
:105830005D2A8091F00088608093F0000E944527E7
:10584000FF91EF91BF91AF919F918F917F916F9158
:105850005F914F913F912F910F900FBE0F901F902E
:1058600018951F920F920FB60F9211242F933F930A
:105870004F935F936F937F938F939F93AF93BF9358
:10588000CF93DF93EF93FF93C091E900CF708091A6
:10589000EC00D82FD17080FDD0E81092E900809103
:1058A000F000877F8093F00078940E94752C10920E
:1058B000E9008091F00088608093F000CD2BCF70DC
:1058C000C093E900FF91EF91DF91CF91BF91AF912C
:1058D0009F918F917F916F915F914F913F912F9108
:1058E0000F900FBE0F901F9018951F93CF93DF93CB
:1058F000CDB7DEB7AA970FB6F894DEBF0FBECDBF07
:10590000EDEFF2E08091F100819323E0E530F207C2
:10591000C9F70E945C278091E80083FF2EC1809127
:10592000FD029091FE02492F50E04A30510508F0E7
:1059300024C1FA01E957FF4F0C94492E803821F019
:10594000823809F01AC108C08091F9029091FA02D8
:10595000992389F082600FC0809101038F70873096
:1059600008F00BC18093E9008091EB0085FB88274C
:1059700080F91092E9009091E800977F9093E800F9
:105980008093F1001092F100D1C0282F2D7F09F0F3
:10599000F4C0882319F0823061F0EFC08091FF02DB
:1059A000813009F0EAC0933009F080E08093FA0278
:1059B0002EC08091FF0281112AC0809101038F7057
:1059C0002FEF280F263008F0D8C08093E9002091EF
:1059D000EB0020FF1CC0933021F48091EB0080622B
:1059E00014C09091EB0090619093EB0021E030E0C7
:1059F000A90102C0440F551F8A95E2F74093EA00BF
:105A00001092EA008091EB0088608093EB00109286
:105A1000E9008091E800877F8093E8000E94922A45
:105A2000ACC08111AAC01091FF021F778091E300E2
:105A30008078812B8093E3008091E800877F8093BA
:105A4000E8000E94922A8091E80080FFFCCF8091BC
:105A5000E30080688093E300111102C082E001C07E
:105A600083E08093FC0289C08058823008F085C0B2
:105A70008091FF02909100038C3D53E0950779F5EA
:105A800083E08A838AE289834FB7F894DE01139614
:105A900020E03EE051E2E32FF0E050935700E49124
:105AA00020FF03C0E295EF703F5FEF708E2F90E014
:105AB000EA3010F0C79601C0C0968D939D932F5F7A
:105AC000243149F74FBF8091E800877F8093E80039
:105AD0006AE270E0CE0101960E949E2916C0609194
